{
  "contractName": "ProductNFT",
  "abi": [
    {
      "inputs": [],
      "stateMutability": "nonpayable",
      "type": "constructor"
    },
    {
      "inputs": [
        {
          "internalType": "address",
          "name": "sender",
          "type": "address"
        },
        {
          "internalType": "uint256",
          "name": "tokenId",
          "type": "uint256"
        },
        {
          "internalType": "address",
          "name": "owner",
          "type": "address"
        }
      ],
      "name": "ERC721IncorrectOwner",
      "type": "error"
    },
    {
      "inputs": [
        {
          "internalType": "address",
          "name": "operator",
          "type": "address"
        },
        {
          "internalType": "uint256",
          "name": "tokenId",
          "type": "uint256"
        }
      ],
      "name": "ERC721InsufficientApproval",
      "type": "error"
    },
    {
      "inputs": [
        {
          "internalType": "address",
          "name": "approver",
          "type": "address"
        }
      ],
      "name": "ERC721InvalidApprover",
      "type": "error"
    },
    {
      "inputs": [
        {
          "internalType": "address",
          "name": "operator",
          "type": "address"
        }
      ],
      "name": "ERC721InvalidOperator",
      "type": "error"
    },
    {
      "inputs": [
        {
          "internalType": "address",
          "name": "owner",
          "type": "address"
        }
      ],
      "name": "ERC721InvalidOwner",
      "type": "error"
    },
    {
      "inputs": [
        {
          "internalType": "address",
          "name": "receiver",
          "type": "address"
        }
      ],
      "name": "ERC721InvalidReceiver",
      "type": "error"
    },
    {
      "inputs": [
        {
          "internalType": "address",
          "name": "sender",
          "type": "address"
        }
      ],
      "name": "ERC721InvalidSender",
      "type": "error"
    },
    {
      "inputs": [
        {
          "internalType": "uint256",
          "name": "tokenId",
          "type": "uint256"
        }
      ],
      "name": "ERC721NonexistentToken",
      "type": "error"
    },
    {
      "anonymous": false,
      "inputs": [
        {
          "indexed": true,
          "internalType": "address",
          "name": "owner",
          "type": "address"
        },
        {
          "indexed": true,
          "internalType": "address",
          "name": "approved",
          "type": "address"
        },
        {
          "indexed": true,
          "internalType": "uint256",
          "name": "tokenId",
          "type": "uint256"
        }
      ],
      "name": "Approval",
      "type": "event"
    },
    {
      "anonymous": false,
      "inputs": [
        {
          "indexed": true,
          "internalType": "address",
          "name": "owner",
          "type": "address"
        },
        {
          "indexed": true,
          "internalType": "address",
          "name": "operator",
          "type": "address"
        },
        {
          "indexed": false,
          "internalType": "bool",
          "name": "approved",
          "type": "bool"
        }
      ],
      "name": "ApprovalForAll",
      "type": "event"
    },
    {
      "anonymous": false,
      "inputs": [
        {
          "indexed": true,
          "internalType": "address",
          "name": "from",
          "type": "address"
        },
        {
          "indexed": true,
          "internalType": "address",
          "name": "to",
          "type": "address"
        },
        {
          "indexed": true,
          "internalType": "uint256",
          "name": "tokenId",
          "type": "uint256"
        }
      ],
      "name": "Transfer",
      "type": "event"
    },
    {
      "inputs": [
        {
          "internalType": "address",
          "name": "to",
          "type": "address"
        },
        {
          "internalType": "uint256",
          "name": "tokenId",
          "type": "uint256"
        }
      ],
      "name": "approve",
      "outputs": [],
      "stateMutability": "nonpayable",
      "type": "function"
    },
    {
      "inputs": [
        {
          "internalType": "address",
          "name": "owner",
          "type": "address"
        }
      ],
      "name": "balanceOf",
      "outputs": [
        {
          "internalType": "uint256",
          "name": "",
          "type": "uint256"
        }
      ],
      "stateMutability": "view",
      "type": "function",
      "constant": true
    },
    {
      "inputs": [
        {
          "internalType": "uint256",
          "name": "tokenId",
          "type": "uint256"
        }
      ],
      "name": "getApproved",
      "outputs": [
        {
          "internalType": "address",
          "name": "",
          "type": "address"
        }
      ],
      "stateMutability": "view",
      "type": "function",
      "constant": true
    },
    {
      "inputs": [
        {
          "internalType": "address",
          "name": "owner",
          "type": "address"
        },
        {
          "internalType": "address",
          "name": "operator",
          "type": "address"
        }
      ],
      "name": "isApprovedForAll",
      "outputs": [
        {
          "internalType": "bool",
          "name": "",
          "type": "bool"
        }
      ],
      "stateMutability": "view",
      "type": "function",
      "constant": true
    },
    {
      "inputs": [],
      "name": "name",
      "outputs": [
        {
          "internalType": "string",
          "name": "",
          "type": "string"
        }
      ],
      "stateMutability": "view",
      "type": "function",
      "constant": true
    },
    {
      "inputs": [
        {
          "internalType": "uint256",
          "name": "tokenId",
          "type": "uint256"
        }
      ],
      "name": "ownerOf",
      "outputs": [
        {
          "internalType": "address",
          "name": "",
          "type": "address"
        }
      ],
      "stateMutability": "view",
      "type": "function",
      "constant": true
    },
    {
      "inputs": [
        {
          "internalType": "address",
          "name": "from",
          "type": "address"
        },
        {
          "internalType": "address",
          "name": "to",
          "type": "address"
        },
        {
          "internalType": "uint256",
          "name": "tokenId",
          "type": "uint256"
        }
      ],
      "name": "safeTransferFrom",
      "outputs": [],
      "stateMutability": "nonpayable",
      "type": "function"
    },
    {
      "inputs": [
        {
          "internalType": "address",
          "name": "from",
          "type": "address"
        },
        {
          "internalType": "address",
          "name": "to",
          "type": "address"
        },
        {
          "internalType": "uint256",
          "name": "tokenId",
          "type": "uint256"
        },
        {
          "internalType": "bytes",
          "name": "data",
          "type": "bytes"
        }
      ],
      "name": "safeTransferFrom",
      "outputs": [],
      "stateMutability": "nonpayable",
      "type": "function"
    },
    {
      "inputs": [
        {
          "internalType": "address",
          "name": "operator",
          "type": "address"
        },
        {
          "internalType": "bool",
          "name": "approved",
          "type": "bool"
        }
      ],
      "name": "setApprovalForAll",
      "outputs": [],
      "stateMutability": "nonpayable",
      "type": "function"
    },
    {
      "inputs": [
        {
          "internalType": "bytes4",
          "name": "interfaceId",
          "type": "bytes4"
        }
      ],
      "name": "supportsInterface",
      "outputs": [
        {
          "internalType": "bool",
          "name": "",
          "type": "bool"
        }
      ],
      "stateMutability": "view",
      "type": "function",
      "constant": true
    },
    {
      "inputs": [],
      "name": "symbol",
      "outputs": [
        {
          "internalType": "string",
          "name": "",
          "type": "string"
        }
      ],
      "stateMutability": "view",
      "type": "function",
      "constant": true
    },
    {
      "inputs": [
        {
          "internalType": "uint256",
          "name": "tokenId",
          "type": "uint256"
        }
      ],
      "name": "tokenURI",
      "outputs": [
        {
          "internalType": "string",
          "name": "",
          "type": "string"
        }
      ],
      "stateMutability": "view",
      "type": "function",
      "constant": true
    },
    {
      "inputs": [
        {
          "internalType": "address",
          "name": "from",
          "type": "address"
        },
        {
          "internalType": "address",
          "name": "to",
          "type": "address"
        },
        {
          "internalType": "uint256",
          "name": "tokenId",
          "type": "uint256"
        }
      ],
      "name": "transferFrom",
      "outputs": [],
      "stateMutability": "nonpayable",
      "type": "function"
    },
    {
      "inputs": [
        {
          "internalType": "address",
          "name": "_to",
          "type": "address"
        },
        {
          "internalType": "uint256",
          "name": "tokenId",
          "type": "uint256"
        }
      ],
      "name": "mintNFT",
      "outputs": [],
      "stateMutability": "nonpayable",
      "type": "function"
    },
    {
      "inputs": [
        {
          "internalType": "address",
          "name": "operator",
          "type": "address"
        },
        {
          "internalType": "address",
          "name": "_from",
          "type": "address"
        },
        {
          "internalType": "address",
          "name": "_to",
          "type": "address"
        },
        {
          "internalType": "uint256",
          "name": "tokenId",
          "type": "uint256"
        }
      ],
      "name": "transferNFT",
      "outputs": [],
      "stateMutability": "nonpayable",
      "type": "function"
    },
    {
      "inputs": [
        {
          "internalType": "address",
          "name": "user",
          "type": "address"
        }
      ],
      "name": "balanceOfNFT",
      "outputs": [
        {
          "internalType": "uint256",
          "name": "",
          "type": "uint256"
        }
      ],
      "stateMutability": "view",
      "type": "function",
      "constant": true
    }
  ],
  "bytecode": "0x608060405234801562000010575f80fd5b506040518060400160405280600981526020017f50726f64546f6b656e00000000000000000000000000000000000000000000008152506040518060400160405280600581526020017f3732315054000000000000000000000000000000000000000000000000000000815250815f90816200008d91906200030c565b5080600190816200009f91906200030c565b505050620003f0565b5f81519050919050565b7f4e487b71000000000000000000000000000000000000000000000000000000005f52604160045260245ffd5b7f4e487b71000000000000000000000000000000000000000000000000000000005f52602260045260245ffd5b5f60028204905060018216806200012457607f821691505b6020821081036200013a5762000139620000df565b5b50919050565b5f819050815f5260205f209050919050565b5f6020601f8301049050919050565b5f82821b905092915050565b5f600883026200019e7fffffffffffffffffffffffffffffffffffffffffffffffffffffffffffffffff8262000161565b620001aa868362000161565b95508019841693508086168417925050509392505050565b5f819050919050565b5f819050919050565b5f620001f4620001ee620001e884620001c2565b620001cb565b620001c2565b9050919050565b5f819050919050565b6200020f83620001d4565b620002276200021e82620001fb565b8484546200016d565b825550505050565b5f90565b6200023d6200022f565b6200024a81848462000204565b505050565b5b818110156200027157620002655f8262000233565b60018101905062000250565b5050565b601f821115620002c0576200028a8162000140565b620002958462000152565b81016020851015620002a5578190505b620002bd620002b48562000152565b8301826200024f565b50505b505050565b5f82821c905092915050565b5f620002e25f1984600802620002c5565b1980831691505092915050565b5f620002fc8383620002d1565b9150826002028217905092915050565b6200031782620000a8565b67ffffffffffffffff811115620003335762000332620000b2565b5b6200033f82546200010c565b6200034c82828562000275565b5f60209050601f83116001811462000382575f84156200036d578287015190505b620003798582620002ef565b865550620003e8565b601f198416620003928662000140565b5f5b82811015620003bb5784890151825560018201915060208501945060208101905062000394565b86831015620003db5784890151620003d7601f891682620002d1565b8355505b6001600288020188555050505b505050505050565b611f6680620003fe5f395ff3fe608060405234801561000f575f80fd5b50600436106100fe575f3560e01c806370a0823111610095578063b88d4fde11610064578063b88d4fde146102a6578063c87b56dd146102c2578063e985e9c5146102f2578063f5b100ea14610322576100fe565b806370a082311461022057806395d89b4114610250578063a22cb4651461026e578063b03066711461028a576100fe565b806323b872dd116100d157806323b872dd1461019c5780633c168eab146101b857806342842e0e146101d45780636352211e146101f0576100fe565b806301ffc9a71461010257806306fdde0314610132578063081812fc14610150578063095ea7b314610180575b5f80fd5b61011c60048036038101906101179190611793565b610352565b60405161012991906117d8565b60405180910390f35b61013a610433565b604051610147919061187b565b60405180910390f35b61016a600480360381019061016591906118ce565b6104c2565b6040516101779190611938565b60405180910390f35b61019a6004803603810190610195919061197b565b6104dd565b005b6101b660048036038101906101b191906119b9565b6104f3565b005b6101d260048036038101906101cd919061197b565b6105f2565b005b6101ee60048036038101906101e991906119b9565b610600565b005b61020a600480360381019061020591906118ce565b61061f565b6040516102179190611938565b60405180910390f35b61023a60048036038101906102359190611a09565b610630565b6040516102479190611a43565b60405180910390f35b6102586106e6565b604051610265919061187b565b60405180910390f35b61028860048036038101906102839190611a86565b610776565b005b6102a4600480360381019061029f9190611ac4565b61078c565b005b6102c060048036038101906102bb9190611c54565b61079d565b005b6102dc60048036038101906102d791906118ce565b6107ba565b6040516102e9919061187b565b60405180910390f35b61030c60048036038101906103079190611cd4565b610820565b60405161031991906117d8565b60405180910390f35b61033c60048036038101906103379190611a09565b6108ae565b6040516103499190611a43565b60405180910390f35b5f7f80ac58cd000000000000000000000000000000000000000000000000000000007bffffffffffffffffffffffffffffffffffffffffffffffffffffffff1916827bffffffffffffffffffffffffffffffffffffffffffffffffffffffff1916148061041c57507f5b5e139f000000000000000000000000000000000000000000000000000000007bffffffffffffffffffffffffffffffffffffffffffffffffffffffff1916827bffffffffffffffffffffffffffffffffffffffffffffffffffffffff1916145b8061042c575061042b826108bf565b5b9050919050565b60605f805461044190611d3f565b80601f016020809104026020016040519081016040528092919081815260200182805461046d90611d3f565b80156104b85780601f1061048f576101008083540402835291602001916104b8565b820191905f5260205f20905b81548152906001019060200180831161049b57829003601f168201915b5050505050905090565b5f6104cc82610928565b506104d6826109ae565b9050919050565b6104ef82826104ea6109e7565b6109ee565b5050565b5f73ffffffffffffffffffffffffffffffffffffffff168273ffffffffffffffffffffffffffffffffffffffff1603610563575f6040517f64a0ae9200000000000000000000000000000000000000000000000000000000815260040161055a9190611938565b60405180910390fd5b5f61057683836105716109e7565b610a00565b90508373ffffffffffffffffffffffffffffffffffffffff168173ffffffffffffffffffffffffffffffffffffffff16146105ec578382826040517f64283d7b0000000000000000000000000000000000000000000000000000000081526004016105e393929190611d6f565b60405180910390fd5b50505050565b6105fc8282610c0b565b5050565b61061a83838360405180602001604052805f81525061079d565b505050565b5f61062982610928565b9050919050565b5f8073ffffffffffffffffffffffffffffffffffffffff168273ffffffffffffffffffffffffffffffffffffffff16036106a1575f6040517f89c62b640000000000000000000000000000000000000000000000000000000081526004016106989190611938565b60405180910390fd5b60035f8373ffffffffffffffffffffffffffffffffffffffff1673ffffffffffffffffffffffffffffffffffffffff1681526020019081526020015f20549050919050565b6060600180546106f590611d3f565b80601f016020809104026020016040519081016040528092919081815260200182805461072190611d3f565b801561076c5780601f106107435761010080835404028352916020019161076c565b820191905f5260205f20905b81548152906001019060200180831161074f57829003601f168201915b5050505050905090565b6107886107816109e7565b8383610cfe565b5050565b610797838383610e67565b50505050565b6107a88484846104f3565b6107b484848484610fcf565b50505050565b60606107c582610928565b505f6107cf611181565b90505f8151116107ed5760405180602001604052805f815250610818565b806107f784611197565b604051602001610808929190611dde565b6040516020818303038152906040525b915050919050565b5f60055f8473ffffffffffffffffffffffffffffffffffffffff1673ffffffffffffffffffffffffffffffffffffffff1681526020019081526020015f205f8373ffffffffffffffffffffffffffffffffffffffff1673ffffffffffffffffffffffffffffffffffffffff1681526020019081526020015f205f9054906101000a900460ff16905092915050565b5f6108b882610630565b9050919050565b5f7f01ffc9a7000000000000000000000000000000000000000000000000000000007bffffffffffffffffffffffffffffffffffffffffffffffffffffffff1916827bffffffffffffffffffffffffffffffffffffffffffffffffffffffff1916149050919050565b5f8061093383611261565b90505f73ffffffffffffffffffffffffffffffffffffffff168173ffffffffffffffffffffffffffffffffffffffff16036109a557826040517f7e27328900000000000000000000000000000000000000000000000000000000815260040161099c9190611a43565b60405180910390fd5b80915050919050565b5f60045f8381526020019081526020015f205f9054906101000a900473ffffffffffffffffffffffffffffffffffffffff169050919050565b5f33905090565b6109fb838383600161129a565b505050565b5f80610a0b84611261565b90505f73ffffffffffffffffffffffffffffffffffffffff168373ffffffffffffffffffffffffffffffffffffffff1614610a4c57610a4b818486611459565b5b5f73ffffffffffffffffffffffffffffffffffffffff168173ffffffffffffffffffffffffffffffffffffffff1614610ad757610a8b5f855f8061129a565b600160035f8373ffffffffffffffffffffffffffffffffffffffff1673ffffffffffffffffffffffffffffffffffffffff1681526020019081526020015f205f82825403925050819055505b5f73ffffffffffffffffffffffffffffffffffffffff168573ffffffffffffffffffffffffffffffffffffffff1614610b5657600160035f8773ffffffffffffffffffffffffffffffffffffffff1673ffffffffffffffffffffffffffffffffffffffff1681526020019081526020015f205f82825401925050819055505b8460025f8681526020019081526020015f205f6101000a81548173ffffffffffffffffffffffffffffffffffffffff021916908373ffffffffffffffffffffffffffffffffffffffff160217905550838573ffffffffffffffffffffffffffffffffffffffff168273ffffffffffffffffffffffffffffffffffffffff167fddf252ad1be2c89b69c2b068fc378daa952ba7f163c4a11628f55a4df523b3ef60405160405180910390a4809150509392505050565b5f73ffffffffffffffffffffffffffffffffffffffff168273ffffffffffffffffffffffffffffffffffffffff1603610c7b575f6040517f64a0ae92000000000000000000000000000000000000000000000000000000008152600401610c729190611938565b60405180910390fd5b5f610c8783835f610a00565b90505f73ffffffffffffffffffffffffffffffffffffffff168173ffffffffffffffffffffffffffffffffffffffff1614610cf9575f6040517f73c6ac6e000000000000000000000000000000000000000000000000000000008152600401610cf09190611938565b60405180910390fd5b505050565b5f73ffffffffffffffffffffffffffffffffffffffff168273ffffffffffffffffffffffffffffffffffffffff1603610d6e57816040517f5b08ba18000000000000000000000000000000000000000000000000000000008152600401610d659190611938565b60405180910390fd5b8060055f8573ffffffffffffffffffffffffffffffffffffffff1673ffffffffffffffffffffffffffffffffffffffff1681526020019081526020015f205f8473ffffffffffffffffffffffffffffffffffffffff1673ffffffffffffffffffffffffffffffffffffffff1681526020019081526020015f205f6101000a81548160ff0219169083151502179055508173ffffffffffffffffffffffffffffffffffffffff168373ffffffffffffffffffffffffffffffffffffffff167f17307eab39ab6107e8899845ad3d59bd9653f200f220920489ca2b5937696c3183604051610e5a91906117d8565b60405180910390a3505050565b5f73ffffffffffffffffffffffffffffffffffffffff168273ffffffffffffffffffffffffffffffffffffffff1603610ed7575f6040517f64a0ae92000000000000000000000000000000000000000000000000000000008152600401610ece9190611938565b60405180910390fd5b5f610ee383835f610a00565b90505f73ffffffffffffffffffffffffffffffffffffffff168173ffffffffffffffffffffffffffffffffffffffff1603610f5557816040517f7e273289000000000000000000000000000000000000000000000000000000008152600401610f4c9190611a43565b60405180910390fd5b8373ffffffffffffffffffffffffffffffffffffffff168173ffffffffffffffffffffffffffffffffffffffff1614610fc9578382826040517f64283d7b000000000000000000000000000000000000000000000000000000008152600401610fc093929190611d6f565b60405180910390fd5b50505050565b5f8373ffffffffffffffffffffffffffffffffffffffff163b111561117b578273ffffffffffffffffffffffffffffffffffffffff1663150b7a026110126109e7565b8685856040518563ffffffff1660e01b81526004016110349493929190611e53565b6020604051808303815f875af192505050801561106f57506040513d601f19601f8201168201806040525081019061106c9190611eb1565b60015b6110f0573d805f811461109d576040519150601f19603f3d011682016040523d82523d5f602084013e6110a2565b606091505b505f8151036110e857836040517f64a0ae920000000000000000000000000000000000000000000000000000000081526004016110df9190611938565b60405180910390fd5b805181602001fd5b63150b7a0260e01b7bffffffffffffffffffffffffffffffffffffffffffffffffffffffff1916817bffffffffffffffffffffffffffffffffffffffffffffffffffffffff19161461117957836040517f64a0ae920000000000000000000000000000000000000000000000000000000081526004016111709190611938565b60405180910390fd5b505b50505050565b606060405180602001604052805f815250905090565b60605f60016111a58461151c565b0190505f8167ffffffffffffffff8111156111c3576111c2611b30565b5b6040519080825280601f01601f1916602001820160405280156111f55781602001600182028036833780820191505090505b5090505f82602001820190505b600115611256578080600190039150507f3031323334353637383961626364656600000000000000000000000000000000600a86061a8153600a858161124b5761124a611edc565b5b0494505f8503611202575b819350505050919050565b5f60025f8381526020019081526020015f205f9054906101000a900473ffffffffffffffffffffffffffffffffffffffff169050919050565b80806112d257505f73ffffffffffffffffffffffffffffffffffffffff168273ffffffffffffffffffffffffffffffffffffffff1614155b15611404575f6112e184610928565b90505f73ffffffffffffffffffffffffffffffffffffffff168373ffffffffffffffffffffffffffffffffffffffff161415801561134b57508273ffffffffffffffffffffffffffffffffffffffff168173ffffffffffffffffffffffffffffffffffffffff1614155b801561135e575061135c8184610820565b155b156113a057826040517fa9fbf51f0000000000000000000000000000000000000000000000000000000081526004016113979190611938565b60405180910390fd5b811561140257838573ffffffffffffffffffffffffffffffffffffffff168273ffffffffffffffffffffffffffffffffffffffff167f8c5be1e5ebec7d5bd14f71427d1e84f3dd0314c0f7b2291e5b200ac8c7c3b92560405160405180910390a45b505b8360045f8581526020019081526020015f205f6101000a81548173ffffffffffffffffffffffffffffffffffffffff021916908373ffffffffffffffffffffffffffffffffffffffff16021790555050505050565b61146483838361166d565b611517575f73ffffffffffffffffffffffffffffffffffffffff168373ffffffffffffffffffffffffffffffffffffffff16036114d857806040517f7e2732890000000000000000000000000000000000000000000000000000000081526004016114cf9190611a43565b60405180910390fd5b81816040517f177e802f00000000000000000000000000000000000000000000000000000000815260040161150e929190611f09565b60405180910390fd5b505050565b5f805f90507a184f03e93ff9f4daa797ed6e38ed64bf6a1f0100000000000000008310611578577a184f03e93ff9f4daa797ed6e38ed64bf6a1f010000000000000000838161156e5761156d611edc565b5b0492506040810190505b6d04ee2d6d415b85acef810000000083106115b5576d04ee2d6d415b85acef810000000083816115ab576115aa611edc565b5b0492506020810190505b662386f26fc1000083106115e457662386f26fc1000083816115da576115d9611edc565b5b0492506010810190505b6305f5e100831061160d576305f5e100838161160357611602611edc565b5b0492506008810190505b612710831061163257612710838161162857611627611edc565b5b0492506004810190505b60648310611655576064838161164b5761164a611edc565b5b0492506002810190505b600a8310611664576001810190505b80915050919050565b5f8073ffffffffffffffffffffffffffffffffffffffff168373ffffffffffffffffffffffffffffffffffffffff161415801561172457508273ffffffffffffffffffffffffffffffffffffffff168473ffffffffffffffffffffffffffffffffffffffff1614806116e557506116e48484610820565b5b8061172357508273ffffffffffffffffffffffffffffffffffffffff1661170b836109ae565b73ffffffffffffffffffffffffffffffffffffffff16145b5b90509392505050565b5f604051905090565b5f80fd5b5f80fd5b5f7fffffffff0000000000000000000000000000000000000000000000000000000082169050919050565b6117728161173e565b811461177c575f80fd5b50565b5f8135905061178d81611769565b92915050565b5f602082840312156117a8576117a7611736565b5b5f6117b58482850161177f565b91505092915050565b5f8115159050919050565b6117d2816117be565b82525050565b5f6020820190506117eb5f8301846117c9565b92915050565b5f81519050919050565b5f82825260208201905092915050565b5f5b8381101561182857808201518184015260208101905061180d565b5f8484015250505050565b5f601f19601f8301169050919050565b5f61184d826117f1565b61185781856117fb565b935061186781856020860161180b565b61187081611833565b840191505092915050565b5f6020820190508181035f8301526118938184611843565b905092915050565b5f819050919050565b6118ad8161189b565b81146118b7575f80fd5b50565b5f813590506118c8816118a4565b92915050565b5f602082840312156118e3576118e2611736565b5b5f6118f0848285016118ba565b91505092915050565b5f73ffffffffffffffffffffffffffffffffffffffff82169050919050565b5f611922826118f9565b9050919050565b61193281611918565b82525050565b5f60208201905061194b5f830184611929565b92915050565b61195a81611918565b8114611964575f80fd5b50565b5f8135905061197581611951565b92915050565b5f806040838503121561199157611990611736565b5b5f61199e85828601611967565b92505060206119af858286016118ba565b9150509250929050565b5f805f606084860312156119d0576119cf611736565b5b5f6119dd86828701611967565b93505060206119ee86828701611967565b92505060406119ff868287016118ba565b9150509250925092565b5f60208284031215611a1e57611a1d611736565b5b5f611a2b84828501611967565b91505092915050565b611a3d8161189b565b82525050565b5f602082019050611a565f830184611a34565b92915050565b611a65816117be565b8114611a6f575f80fd5b50565b5f81359050611a8081611a5c565b92915050565b5f8060408385031215611a9c57611a9b611736565b5b5f611aa985828601611967565b9250506020611aba85828601611a72565b9150509250929050565b5f805f8060808587031215611adc57611adb611736565b5b5f611ae987828801611967565b9450506020611afa87828801611967565b9350506040611b0b87828801611967565b9250506060611b1c878288016118ba565b91505092959194509250565b5f80fd5b5f80fd5b7f4e487b71000000000000000000000000000000000000000000000000000000005f52604160045260245ffd5b611b6682611833565b810181811067ffffffffffffffff82111715611b8557611b84611b30565b5b80604052505050565b5f611b9761172d565b9050611ba38282611b5d565b919050565b5f67ffffffffffffffff821115611bc257611bc1611b30565b5b611bcb82611833565b9050602081019050919050565b828183375f83830152505050565b5f611bf8611bf384611ba8565b611b8e565b905082815260208101848484011115611c1457611c13611b2c565b5b611c1f848285611bd8565b509392505050565b5f82601f830112611c3b57611c3a611b28565b5b8135611c4b848260208601611be6565b91505092915050565b5f805f8060808587031215611c6c57611c6b611736565b5b5f611c7987828801611967565b9450506020611c8a87828801611967565b9350506040611c9b878288016118ba565b925050606085013567ffffffffffffffff811115611cbc57611cbb61173a565b5b611cc887828801611c27565b91505092959194509250565b5f8060408385031215611cea57611ce9611736565b5b5f611cf785828601611967565b9250506020611d0885828601611967565b9150509250929050565b7f4e487b71000000000000000000000000000000000000000000000000000000005f52602260045260245ffd5b5f6002820490506001821680611d5657607f821691505b602082108103611d6957611d68611d12565b5b50919050565b5f606082019050611d825f830186611929565b611d8f6020830185611a34565b611d9c6040830184611929565b949350505050565b5f81905092915050565b5f611db8826117f1565b611dc28185611da4565b9350611dd281856020860161180b565b80840191505092915050565b5f611de98285611dae565b9150611df58284611dae565b91508190509392505050565b5f81519050919050565b5f82825260208201905092915050565b5f611e2582611e01565b611e2f8185611e0b565b9350611e3f81856020860161180b565b611e4881611833565b840191505092915050565b5f608082019050611e665f830187611929565b611e736020830186611929565b611e806040830185611a34565b8181036060830152611e928184611e1b565b905095945050505050565b5f81519050611eab81611769565b92915050565b5f60208284031215611ec657611ec5611736565b5b5f611ed384828501611e9d565b91505092915050565b7f4e487b71000000000000000000000000000000000000000000000000000000005f52601260045260245ffd5b5f604082019050611f1c5f830185611929565b611f296020830184611a34565b939250505056fea264697066735822122010334fd9f522f695feeeda932375adbf3e4dc65983e493afd14fae99fefd515464736f6c63430008140033",
  "immutableReferences": {},
  "source": "// SPDX-License-Identifier: MIT\r\npragma solidity ^0.8.20;\r\n\r\nimport \"@openzeppelin/contracts/token/ERC721/ERC721.sol\";\r\n\r\n\r\ncontract ProductNFT is ERC721 {\r\n\r\n    constructor() ERC721(\"ProdToken\", \"721PT\") {}\r\n\r\n    \r\n\r\n    function mintNFT(address _to, uint256 tokenId) external {\r\n        _mint(_to, tokenId);\r\n    }\r\n\r\n    function transferNFT(address operator,address _from, address _to, uint256 tokenId) external {\r\n        //approve(operator, tokenId);\r\n        _transfer(_from, _to, tokenId);\r\n\r\n        \r\n    }\r\n\r\n    function balanceOfNFT(address user) public view returns (uint256) {\r\n        return balanceOf(user);\r\n    }\r\n\r\n\r\n\r\n}\r\n",
  "sourcePath": "C:\\Users\\prana\\OneDrive\\Desktop\\Blockchain\\Phase3\\Ratify\\contracts\\ProductNFT.sol",
  "compiler": {
    "name": "solc",
    "version": "0.8.20+commit.a1b79de6.Emscripten.clang"
  },
  "schemaVersion": "3.4.16",
  "updatedAt": "2023-12-09T00:11:15.730Z",
  "networkType": "ethereum",
  "devdoc": {
    "errors": {
      "ERC721IncorrectOwner(address,uint256,address)": [
        {
          "details": "Indicates an error related to the ownership over a particular token. Used in transfers.",
          "params": {
            "owner": "Address of the current owner of a token.",
            "sender": "Address whose tokens are being transferred.",
            "tokenId": "Identifier number of a token."
          }
        }
      ],
      "ERC721InsufficientApproval(address,uint256)": [
        {
          "details": "Indicates a failure with the `operator`s approval. Used in transfers.",
          "params": {
            "operator": "Address that may be allowed to operate on tokens without being their owner.",
            "tokenId": "Identifier number of a token."
          }
        }
      ],
      "ERC721InvalidApprover(address)": [
        {
          "details": "Indicates a failure with the `approver` of a token to be approved. Used in approvals.",
          "params": {
            "approver": "Address initiating an approval operation."
          }
        }
      ],
      "ERC721InvalidOperator(address)": [
        {
          "details": "Indicates a failure with the `operator` to be approved. Used in approvals.",
          "params": {
            "operator": "Address that may be allowed to operate on tokens without being their owner."
          }
        }
      ],
      "ERC721InvalidOwner(address)": [
        {
          "details": "Indicates that an address can't be an owner. For example, `address(0)` is a forbidden owner in EIP-20. Used in balance queries.",
          "params": {
            "owner": "Address of the current owner of a token."
          }
        }
      ],
      "ERC721InvalidReceiver(address)": [
        {
          "details": "Indicates a failure with the token `receiver`. Used in transfers.",
          "params": {
            "receiver": "Address to which tokens are being transferred."
          }
        }
      ],
      "ERC721InvalidSender(address)": [
        {
          "details": "Indicates a failure with the token `sender`. Used in transfers.",
          "params": {
            "sender": "Address whose tokens are being transferred."
          }
        }
      ],
      "ERC721NonexistentToken(uint256)": [
        {
          "details": "Indicates a `tokenId` whose `owner` is the zero address.",
          "params": {
            "tokenId": "Identifier number of a token."
          }
        }
      ]
    },
    "events": {
      "Approval(address,address,uint256)": {
        "details": "Emitted when `owner` enables `approved` to manage the `tokenId` token."
      },
      "ApprovalForAll(address,address,bool)": {
        "details": "Emitted when `owner` enables or disables (`approved`) `operator` to manage all of its assets."
      },
      "Transfer(address,address,uint256)": {
        "details": "Emitted when `tokenId` token is transferred from `from` to `to`."
      }
    },
    "kind": "dev",
    "methods": {
      "approve(address,uint256)": {
        "details": "See {IERC721-approve}."
      },
      "balanceOf(address)": {
        "details": "See {IERC721-balanceOf}."
      },
      "getApproved(uint256)": {
        "details": "See {IERC721-getApproved}."
      },
      "isApprovedForAll(address,address)": {
        "details": "See {IERC721-isApprovedForAll}."
      },
      "name()": {
        "details": "See {IERC721Metadata-name}."
      },
      "ownerOf(uint256)": {
        "details": "See {IERC721-ownerOf}."
      },
      "safeTransferFrom(address,address,uint256)": {
        "details": "See {IERC721-safeTransferFrom}."
      },
      "safeTransferFrom(address,address,uint256,bytes)": {
        "details": "See {IERC721-safeTransferFrom}."
      },
      "setApprovalForAll(address,bool)": {
        "details": "See {IERC721-setApprovalForAll}."
      },
      "supportsInterface(bytes4)": {
        "details": "See {IERC165-supportsInterface}."
      },
      "symbol()": {
        "details": "See {IERC721Metadata-symbol}."
      },
      "tokenURI(uint256)": {
        "details": "See {IERC721Metadata-tokenURI}."
      },
      "transferFrom(address,address,uint256)": {
        "details": "See {IERC721-transferFrom}."
      }
    },
    "version": 1
  },
  "userdoc": {
    "kind": "user",
    "methods": {},
    "version": 1
  }
}