{
  "contractName": "product1155",
  "abi": [
    {
      "inputs": [
        {
          "internalType": "address",
          "name": "_productContractAddress",
          "type": "address"
        },
        {
          "internalType": "address",
          "name": "_productNFTContractAddress",
          "type": "address"
        },
        {
          "internalType": "uint256",
          "name": "id",
          "type": "uint256"
        },
        {
          "internalType": "uint256",
          "name": "amount",
          "type": "uint256"
        },
        {
          "internalType": "bytes",
          "name": "data",
          "type": "bytes"
        }
      ],
      "stateMutability": "nonpayable",
      "type": "constructor"
    },
    {
      "inputs": [
        {
          "internalType": "address",
          "name": "sender",
          "type": "address"
        },
        {
          "internalType": "uint256",
          "name": "balance",
          "type": "uint256"
        },
        {
          "internalType": "uint256",
          "name": "needed",
          "type": "uint256"
        },
        {
          "internalType": "uint256",
          "name": "tokenId",
          "type": "uint256"
        }
      ],
      "name": "ERC1155InsufficientBalance",
      "type": "error"
    },
    {
      "inputs": [
        {
          "internalType": "address",
          "name": "approver",
          "type": "address"
        }
      ],
      "name": "ERC1155InvalidApprover",
      "type": "error"
    },
    {
      "inputs": [
        {
          "internalType": "uint256",
          "name": "idsLength",
          "type": "uint256"
        },
        {
          "internalType": "uint256",
          "name": "valuesLength",
          "type": "uint256"
        }
      ],
      "name": "ERC1155InvalidArrayLength",
      "type": "error"
    },
    {
      "inputs": [
        {
          "internalType": "address",
          "name": "operator",
          "type": "address"
        }
      ],
      "name": "ERC1155InvalidOperator",
      "type": "error"
    },
    {
      "inputs": [
        {
          "internalType": "address",
          "name": "receiver",
          "type": "address"
        }
      ],
      "name": "ERC1155InvalidReceiver",
      "type": "error"
    },
    {
      "inputs": [
        {
          "internalType": "address",
          "name": "sender",
          "type": "address"
        }
      ],
      "name": "ERC1155InvalidSender",
      "type": "error"
    },
    {
      "inputs": [
        {
          "internalType": "address",
          "name": "operator",
          "type": "address"
        },
        {
          "internalType": "address",
          "name": "owner",
          "type": "address"
        }
      ],
      "name": "ERC1155MissingApprovalForAll",
      "type": "error"
    },
    {
      "anonymous": false,
      "inputs": [
        {
          "indexed": true,
          "internalType": "address",
          "name": "account",
          "type": "address"
        },
        {
          "indexed": true,
          "internalType": "address",
          "name": "operator",
          "type": "address"
        },
        {
          "indexed": false,
          "internalType": "bool",
          "name": "approved",
          "type": "bool"
        }
      ],
      "name": "ApprovalForAll",
      "type": "event"
    },
    {
      "anonymous": false,
      "inputs": [
        {
          "indexed": true,
          "internalType": "address",
          "name": "recipient",
          "type": "address"
        },
        {
          "indexed": false,
          "internalType": "uint256",
          "name": "tokenId",
          "type": "uint256"
        }
      ],
      "name": "Qrgenerated",
      "type": "event"
    },
    {
      "anonymous": false,
      "inputs": [
        {
          "indexed": true,
          "internalType": "address",
          "name": "operator",
          "type": "address"
        },
        {
          "indexed": true,
          "internalType": "address",
          "name": "from",
          "type": "address"
        },
        {
          "indexed": true,
          "internalType": "address",
          "name": "to",
          "type": "address"
        },
        {
          "indexed": false,
          "internalType": "uint256[]",
          "name": "ids",
          "type": "uint256[]"
        },
        {
          "indexed": false,
          "internalType": "uint256[]",
          "name": "values",
          "type": "uint256[]"
        }
      ],
      "name": "TransferBatch",
      "type": "event"
    },
    {
      "anonymous": false,
      "inputs": [
        {
          "indexed": true,
          "internalType": "address",
          "name": "operator",
          "type": "address"
        },
        {
          "indexed": true,
          "internalType": "address",
          "name": "from",
          "type": "address"
        },
        {
          "indexed": true,
          "internalType": "address",
          "name": "to",
          "type": "address"
        },
        {
          "indexed": false,
          "internalType": "uint256",
          "name": "id",
          "type": "uint256"
        },
        {
          "indexed": false,
          "internalType": "uint256",
          "name": "value",
          "type": "uint256"
        }
      ],
      "name": "TransferSingle",
      "type": "event"
    },
    {
      "anonymous": false,
      "inputs": [
        {
          "indexed": false,
          "internalType": "string",
          "name": "value",
          "type": "string"
        },
        {
          "indexed": true,
          "internalType": "uint256",
          "name": "id",
          "type": "uint256"
        }
      ],
      "name": "URI",
      "type": "event"
    },
    {
      "inputs": [],
      "name": "CFTID",
      "outputs": [
        {
          "internalType": "uint256",
          "name": "",
          "type": "uint256"
        }
      ],
      "stateMutability": "view",
      "type": "function",
      "constant": true
    },
    {
      "inputs": [],
      "name": "NFTID",
      "outputs": [
        {
          "internalType": "uint256",
          "name": "",
          "type": "uint256"
        }
      ],
      "stateMutability": "view",
      "type": "function",
      "constant": true
    },
    {
      "inputs": [
        {
          "internalType": "address",
          "name": "account",
          "type": "address"
        },
        {
          "internalType": "uint256",
          "name": "id",
          "type": "uint256"
        }
      ],
      "name": "balanceOf",
      "outputs": [
        {
          "internalType": "uint256",
          "name": "",
          "type": "uint256"
        }
      ],
      "stateMutability": "view",
      "type": "function",
      "constant": true
    },
    {
      "inputs": [
        {
          "internalType": "address[]",
          "name": "accounts",
          "type": "address[]"
        },
        {
          "internalType": "uint256[]",
          "name": "ids",
          "type": "uint256[]"
        }
      ],
      "name": "balanceOfBatch",
      "outputs": [
        {
          "internalType": "uint256[]",
          "name": "",
          "type": "uint256[]"
        }
      ],
      "stateMutability": "view",
      "type": "function",
      "constant": true
    },
    {
      "inputs": [
        {
          "internalType": "uint256",
          "name": "",
          "type": "uint256"
        }
      ],
      "name": "consumerAddresses",
      "outputs": [
        {
          "internalType": "address",
          "name": "",
          "type": "address"
        }
      ],
      "stateMutability": "view",
      "type": "function",
      "constant": true
    },
    {
      "inputs": [
        {
          "internalType": "address",
          "name": "",
          "type": "address"
        }
      ],
      "name": "consumers",
      "outputs": [
        {
          "internalType": "uint256",
          "name": "consumerId",
          "type": "uint256"
        },
        {
          "internalType": "bytes32",
          "name": "consumerCode",
          "type": "bytes32"
        },
        {
          "internalType": "string",
          "name": "consumerName",
          "type": "string"
        }
      ],
      "stateMutability": "view",
      "type": "function",
      "constant": true
    },
    {
      "inputs": [],
      "name": "erc20Contract",
      "outputs": [
        {
          "internalType": "address",
          "name": "",
          "type": "address"
        }
      ],
      "stateMutability": "view",
      "type": "function",
      "constant": true
    },
    {
      "inputs": [],
      "name": "erc721Contract",
      "outputs": [
        {
          "internalType": "address",
          "name": "",
          "type": "address"
        }
      ],
      "stateMutability": "view",
      "type": "function",
      "constant": true
    },
    {
      "inputs": [
        {
          "internalType": "address",
          "name": "account",
          "type": "address"
        },
        {
          "internalType": "address",
          "name": "operator",
          "type": "address"
        }
      ],
      "name": "isApprovedForAll",
      "outputs": [
        {
          "internalType": "bool",
          "name": "",
          "type": "bool"
        }
      ],
      "stateMutability": "view",
      "type": "function",
      "constant": true
    },
    {
      "inputs": [],
      "name": "owner",
      "outputs": [
        {
          "internalType": "address",
          "name": "",
          "type": "address"
        }
      ],
      "stateMutability": "view",
      "type": "function",
      "constant": true
    },
    {
      "inputs": [],
      "name": "productContract",
      "outputs": [
        {
          "internalType": "contract Product20",
          "name": "",
          "type": "address"
        }
      ],
      "stateMutability": "view",
      "type": "function",
      "constant": true
    },
    {
      "inputs": [
        {
          "internalType": "uint256",
          "name": "",
          "type": "uint256"
        }
      ],
      "name": "productItems",
      "outputs": [
        {
          "internalType": "uint256",
          "name": "productId",
          "type": "uint256"
        },
        {
          "internalType": "bytes32",
          "name": "productSN",
          "type": "bytes32"
        },
        {
          "internalType": "bytes32",
          "name": "productName",
          "type": "bytes32"
        },
        {
          "internalType": "bytes32",
          "name": "productBrand",
          "type": "bytes32"
        },
        {
          "internalType": "uint256",
          "name": "productPrice",
          "type": "uint256"
        },
        {
          "internalType": "bytes32",
          "name": "productStatus",
          "type": "bytes32"
        }
      ],
      "stateMutability": "view",
      "type": "function",
      "constant": true
    },
    {
      "inputs": [
        {
          "internalType": "bytes32",
          "name": "",
          "type": "bytes32"
        }
      ],
      "name": "productMap",
      "outputs": [
        {
          "internalType": "uint256",
          "name": "",
          "type": "uint256"
        }
      ],
      "stateMutability": "view",
      "type": "function",
      "constant": true
    },
    {
      "inputs": [],
      "name": "productNFTContract",
      "outputs": [
        {
          "internalType": "contract ProductNFT",
          "name": "",
          "type": "address"
        }
      ],
      "stateMutability": "view",
      "type": "function",
      "constant": true
    },
    {
      "inputs": [
        {
          "internalType": "bytes32",
          "name": "",
          "type": "bytes32"
        }
      ],
      "name": "productsForSale",
      "outputs": [
        {
          "internalType": "bytes32",
          "name": "",
          "type": "bytes32"
        }
      ],
      "stateMutability": "view",
      "type": "function",
      "constant": true
    },
    {
      "inputs": [
        {
          "internalType": "bytes32",
          "name": "",
          "type": "bytes32"
        }
      ],
      "name": "productsManufactured",
      "outputs": [
        {
          "internalType": "bytes32",
          "name": "",
          "type": "bytes32"
        }
      ],
      "stateMutability": "view",
      "type": "function",
      "constant": true
    },
    {
      "inputs": [
        {
          "internalType": "bytes32",
          "name": "",
          "type": "bytes32"
        }
      ],
      "name": "productsSold",
      "outputs": [
        {
          "internalType": "bytes32",
          "name": "",
          "type": "bytes32"
        }
      ],
      "stateMutability": "view",
      "type": "function",
      "constant": true
    },
    {
      "inputs": [
        {
          "internalType": "bytes32",
          "name": "",
          "type": "bytes32"
        },
        {
          "internalType": "uint256",
          "name": "",
          "type": "uint256"
        }
      ],
      "name": "productsWithConsumer",
      "outputs": [
        {
          "internalType": "bytes32",
          "name": "",
          "type": "bytes32"
        }
      ],
      "stateMutability": "view",
      "type": "function",
      "constant": true
    },
    {
      "inputs": [
        {
          "internalType": "bytes32",
          "name": "",
          "type": "bytes32"
        },
        {
          "internalType": "uint256",
          "name": "",
          "type": "uint256"
        }
      ],
      "name": "productsWithSeller",
      "outputs": [
        {
          "internalType": "bytes32",
          "name": "",
          "type": "bytes32"
        }
      ],
      "stateMutability": "view",
      "type": "function",
      "constant": true
    },
    {
      "inputs": [
        {
          "internalType": "address",
          "name": "from",
          "type": "address"
        },
        {
          "internalType": "address",
          "name": "to",
          "type": "address"
        },
        {
          "internalType": "uint256[]",
          "name": "ids",
          "type": "uint256[]"
        },
        {
          "internalType": "uint256[]",
          "name": "values",
          "type": "uint256[]"
        },
        {
          "internalType": "bytes",
          "name": "data",
          "type": "bytes"
        }
      ],
      "name": "safeBatchTransferFrom",
      "outputs": [],
      "stateMutability": "nonpayable",
      "type": "function"
    },
    {
      "inputs": [
        {
          "internalType": "address",
          "name": "from",
          "type": "address"
        },
        {
          "internalType": "address",
          "name": "to",
          "type": "address"
        },
        {
          "internalType": "uint256",
          "name": "id",
          "type": "uint256"
        },
        {
          "internalType": "uint256",
          "name": "value",
          "type": "uint256"
        },
        {
          "internalType": "bytes",
          "name": "data",
          "type": "bytes"
        }
      ],
      "name": "safeTransferFrom",
      "outputs": [],
      "stateMutability": "nonpayable",
      "type": "function"
    },
    {
      "inputs": [
        {
          "internalType": "uint256",
          "name": "",
          "type": "uint256"
        }
      ],
      "name": "sellerAddresses",
      "outputs": [
        {
          "internalType": "address",
          "name": "",
          "type": "address"
        }
      ],
      "stateMutability": "view",
      "type": "function",
      "constant": true
    },
    {
      "inputs": [
        {
          "internalType": "address",
          "name": "",
          "type": "address"
        }
      ],
      "name": "sellers",
      "outputs": [
        {
          "internalType": "uint256",
          "name": "sellerId",
          "type": "uint256"
        },
        {
          "internalType": "bytes32",
          "name": "sellerName",
          "type": "bytes32"
        },
        {
          "internalType": "bytes32",
          "name": "sellerBrand",
          "type": "bytes32"
        },
        {
          "internalType": "bytes32",
          "name": "sellerCode",
          "type": "bytes32"
        },
        {
          "internalType": "uint256",
          "name": "sellerNum",
          "type": "uint256"
        },
        {
          "internalType": "bytes32",
          "name": "sellerManager",
          "type": "bytes32"
        },
        {
          "internalType": "bytes32",
          "name": "sellerAddress",
          "type": "bytes32"
        }
      ],
      "stateMutability": "view",
      "type": "function",
      "constant": true
    },
    {
      "inputs": [
        {
          "internalType": "bytes32",
          "name": "",
          "type": "bytes32"
        },
        {
          "internalType": "uint256",
          "name": "",
          "type": "uint256"
        }
      ],
      "name": "sellersWithManufacturer",
      "outputs": [
        {
          "internalType": "bytes32",
          "name": "",
          "type": "bytes32"
        }
      ],
      "stateMutability": "view",
      "type": "function",
      "constant": true
    },
    {
      "inputs": [
        {
          "internalType": "address",
          "name": "operator",
          "type": "address"
        },
        {
          "internalType": "bool",
          "name": "approved",
          "type": "bool"
        }
      ],
      "name": "setApprovalForAll",
      "outputs": [],
      "stateMutability": "nonpayable",
      "type": "function"
    },
    {
      "inputs": [
        {
          "internalType": "bytes4",
          "name": "interfaceId",
          "type": "bytes4"
        }
      ],
      "name": "supportsInterface",
      "outputs": [
        {
          "internalType": "bool",
          "name": "",
          "type": "bool"
        }
      ],
      "stateMutability": "view",
      "type": "function",
      "constant": true
    },
    {
      "inputs": [
        {
          "internalType": "uint256",
          "name": "",
          "type": "uint256"
        }
      ],
      "name": "uri",
      "outputs": [
        {
          "internalType": "string",
          "name": "",
          "type": "string"
        }
      ],
      "stateMutability": "view",
      "type": "function",
      "constant": true
    },
    {
      "inputs": [
        {
          "internalType": "bytes32",
          "name": "_consumerCode",
          "type": "bytes32"
        },
        {
          "internalType": "string",
          "name": "_consumerName",
          "type": "string"
        }
      ],
      "name": "registerConsumer",
      "outputs": [],
      "stateMutability": "nonpayable",
      "type": "function"
    },
    {
      "inputs": [
        {
          "internalType": "bytes32",
          "name": "_manufacturerId",
          "type": "bytes32"
        },
        {
          "internalType": "bytes32",
          "name": "_sellerName",
          "type": "bytes32"
        },
        {
          "internalType": "bytes32",
          "name": "_sellerBrand",
          "type": "bytes32"
        },
        {
          "internalType": "bytes32",
          "name": "_sellerCode",
          "type": "bytes32"
        },
        {
          "internalType": "uint256",
          "name": "_sellerNum",
          "type": "uint256"
        },
        {
          "internalType": "bytes32",
          "name": "_sellerManager",
          "type": "bytes32"
        },
        {
          "internalType": "bytes32",
          "name": "_sellerAddress",
          "type": "bytes32"
        }
      ],
      "name": "addSeller",
      "outputs": [],
      "stateMutability": "nonpayable",
      "type": "function"
    },
    {
      "inputs": [
        {
          "internalType": "address",
          "name": "_to",
          "type": "address"
        },
        {
          "internalType": "bytes32",
          "name": "_manufactuerID",
          "type": "bytes32"
        },
        {
          "internalType": "bytes32",
          "name": "_productName",
          "type": "bytes32"
        },
        {
          "internalType": "bytes32",
          "name": "_productSN",
          "type": "bytes32"
        },
        {
          "internalType": "bytes32",
          "name": "_productBrand",
          "type": "bytes32"
        },
        {
          "internalType": "uint256",
          "name": "_productPrice",
          "type": "uint256"
        }
      ],
      "name": "addProduct",
      "outputs": [
        {
          "internalType": "uint256",
          "name": "",
          "type": "uint256"
        }
      ],
      "stateMutability": "nonpayable",
      "type": "function"
    },
    {
      "inputs": [
        {
          "internalType": "bytes32",
          "name": "_productSN",
          "type": "bytes32"
        },
        {
          "internalType": "bytes32",
          "name": "_sellerCode",
          "type": "bytes32"
        }
      ],
      "name": "manufacturerSellProduct",
      "outputs": [],
      "stateMutability": "nonpayable",
      "type": "function"
    },
    {
      "inputs": [
        {
          "internalType": "bytes32",
          "name": "_productSN",
          "type": "bytes32"
        },
        {
          "internalType": "bytes32",
          "name": "_consumerCode",
          "type": "bytes32"
        },
        {
          "internalType": "address",
          "name": "operator",
          "type": "address"
        }
      ],
      "name": "sellerSellProduct",
      "outputs": [],
      "stateMutability": "nonpayable",
      "type": "function"
    },
    {
      "inputs": [
        {
          "internalType": "bytes32",
          "name": "_sellerCode",
          "type": "bytes32"
        }
      ],
      "name": "queryProductsList",
      "outputs": [
        {
          "internalType": "uint256[]",
          "name": "",
          "type": "uint256[]"
        },
        {
          "internalType": "bytes32[]",
          "name": "",
          "type": "bytes32[]"
        },
        {
          "internalType": "bytes32[]",
          "name": "",
          "type": "bytes32[]"
        },
        {
          "internalType": "bytes32[]",
          "name": "",
          "type": "bytes32[]"
        },
        {
          "internalType": "uint256[]",
          "name": "",
          "type": "uint256[]"
        },
        {
          "internalType": "bytes32[]",
          "name": "",
          "type": "bytes32[]"
        }
      ],
      "stateMutability": "view",
      "type": "function",
      "constant": true
    },
    {
      "inputs": [
        {
          "internalType": "bytes32",
          "name": "_manufacturerCode",
          "type": "bytes32"
        }
      ],
      "name": "querySellersList",
      "outputs": [
        {
          "internalType": "uint256[]",
          "name": "",
          "type": "uint256[]"
        },
        {
          "internalType": "bytes32[]",
          "name": "",
          "type": "bytes32[]"
        },
        {
          "internalType": "bytes32[]",
          "name": "",
          "type": "bytes32[]"
        },
        {
          "internalType": "bytes32[]",
          "name": "",
          "type": "bytes32[]"
        },
        {
          "internalType": "uint256[]",
          "name": "",
          "type": "uint256[]"
        },
        {
          "internalType": "bytes32[]",
          "name": "",
          "type": "bytes32[]"
        },
        {
          "internalType": "bytes32[]",
          "name": "",
          "type": "bytes32[]"
        }
      ],
      "stateMutability": "view",
      "type": "function",
      "constant": true
    },
    {
      "inputs": [
        {
          "internalType": "bytes32",
          "name": "_consumerCode",
          "type": "bytes32"
        }
      ],
      "name": "getPurchaseHistory",
      "outputs": [
        {
          "internalType": "bytes32[]",
          "name": "",
          "type": "bytes32[]"
        },
        {
          "internalType": "bytes32[]",
          "name": "",
          "type": "bytes32[]"
        },
        {
          "internalType": "bytes32[]",
          "name": "",
          "type": "bytes32[]"
        }
      ],
      "stateMutability": "view",
      "type": "function",
      "constant": true
    },
    {
      "inputs": [
        {
          "internalType": "bytes32",
          "name": "_productSN",
          "type": "bytes32"
        },
        {
          "internalType": "bytes32",
          "name": "_consumerCode",
          "type": "bytes32"
        }
      ],
      "name": "verifyProduct",
      "outputs": [
        {
          "internalType": "bool",
          "name": "",
          "type": "bool"
        }
      ],
      "stateMutability": "view",
      "type": "function",
      "constant": true
    },
    {
      "inputs": [
        {
          "internalType": "address",
          "name": "accountWithERC20",
          "type": "address"
        },
        {
          "internalType": "uint256",
          "name": "erc20Amount",
          "type": "uint256"
        },
        {
          "internalType": "address",
          "name": "accountWithERC721",
          "type": "address"
        },
        {
          "internalType": "uint256",
          "name": "erc721Id",
          "type": "uint256"
        },
        {
          "internalType": "bytes",
          "name": "data",
          "type": "bytes"
        }
      ],
      "name": "exchangeTokens",
      "outputs": [],
      "stateMutability": "nonpayable",
      "type": "function"
    },
    {
      "inputs": [],
      "name": "getERC20Balance",
      "outputs": [
        {
          "internalType": "uint256",
          "name": "",
          "type": "uint256"
        }
      ],
      "stateMutability": "view",
      "type": "function",
      "constant": true
    },
    {
      "inputs": [],
      "name": "getERC721Balance",
      "outputs": [
        {
          "internalType": "uint256",
          "name": "",
          "type": "uint256"
        }
      ],
      "stateMutability": "view",
      "type": "function",
      "constant": true
    },
    {
      "inputs": [],
      "name": "buyTokens",
      "outputs": [],
      "stateMutability": "nonpayable",
      "type": "function"
    },
    {
      "inputs": [
        {
          "internalType": "address",
          "name": "user",
          "type": "address"
        },
        {
          "internalType": "uint256",
          "name": "tokenID",
          "type": "uint256"
        }
      ],
      "name": "batchbalance",
      "outputs": [
        {
          "internalType": "uint256",
          "name": "",
          "type": "uint256"
        }
      ],
      "stateMutability": "view",
      "type": "function",
      "constant": true
    },
    {
      "inputs": [
        {
          "internalType": "address",
          "name": "_to",
          "type": "address"
        },
        {
          "internalType": "uint256",
          "name": "amount",
          "type": "uint256"
        }
      ],
      "name": "batchTransfer",
      "outputs": [],
      "stateMutability": "nonpayable",
      "type": "function"
    }
  ],
  "bytecode": "0x60806040525f6006555f6008555f6017553480156200001c575f80fd5b50604051620055d7380380620055d7833981810160405281019062000042919062000388565b6040518060400160405280601081526020017f69642c20616d6f756e742c20646174610000000000000000000000000000000081525062000089816200015560201b60201c565b503360055f6101000a81548173ffffffffffffffffffffffffffffffffffffffff021916908373ffffffffffffffffffffffffffffffffffffffff1602179055508460035f6101000a81548173ffffffffffffffffffffffffffffffffffffffff021916908373ffffffffffffffffffffffffffffffffffffffff1602179055508360045f6101000a81548173ffffffffffffffffffffffffffffffffffffffff021916908373ffffffffffffffffffffffffffffffffffffffff16021790555050505050506200073d565b806002908162000166919062000659565b5050565b5f604051905090565b5f80fd5b5f80fd5b5f73ffffffffffffffffffffffffffffffffffffffff82169050919050565b5f620001a6826200017b565b9050919050565b620001b8816200019a565b8114620001c3575f80fd5b50565b5f81519050620001d681620001ad565b92915050565b5f819050919050565b620001f081620001dc565b8114620001fb575f80fd5b50565b5f815190506200020e81620001e5565b92915050565b5f80fd5b5f80fd5b5f601f19601f8301169050919050565b7f4e487b71000000000000000000000000000000000000000000000000000000005f52604160045260245ffd5b62000264826200021c565b810181811067ffffffffffffffff821117156200028657620002856200022c565b5b80604052505050565b5f6200029a6200016a565b9050620002a8828262000259565b919050565b5f67ffffffffffffffff821115620002ca57620002c96200022c565b5b620002d5826200021c565b9050602081019050919050565b5f5b8381101562000301578082015181840152602081019050620002e4565b5f8484015250505050565b5f620003226200031c84620002ad565b6200028f565b90508281526020810184848401111562000341576200034062000218565b5b6200034e848285620002e2565b509392505050565b5f82601f8301126200036d576200036c62000214565b5b81516200037f8482602086016200030c565b91505092915050565b5f805f805f60a08688031215620003a457620003a362000173565b5b5f620003b388828901620001c6565b9550506020620003c688828901620001c6565b9450506040620003d988828901620001fe565b9350506060620003ec88828901620001fe565b925050608086015167ffffffffffffffff81111562000410576200040f62000177565b5b6200041e8882890162000356565b9150509295509295909350565b5f81519050919050565b7f4e487b71000000000000000000000000000000000000000000000000000000005f52602260045260245ffd5b5f60028204905060018216806200047a57607f821691505b60208210810362000490576200048f62000435565b5b50919050565b5f819050815f5260205f209050919050565b5f6020601f8301049050919050565b5f82821b905092915050565b5f60088302620004f47fffffffffffffffffffffffffffffffffffffffffffffffffffffffffffffffff82620004b7565b620005008683620004b7565b95508019841693508086168417925050509392505050565b5f819050919050565b5f620005416200053b6200053584620001dc565b62000518565b620001dc565b9050919050565b5f819050919050565b6200055c8362000521565b620005746200056b8262000548565b848454620004c3565b825550505050565b5f90565b6200058a6200057c565b6200059781848462000551565b505050565b5b81811015620005be57620005b25f8262000580565b6001810190506200059d565b5050565b601f8211156200060d57620005d78162000496565b620005e284620004a8565b81016020851015620005f2578190505b6200060a6200060185620004a8565b8301826200059c565b50505b505050565b5f82821c905092915050565b5f6200062f5f198460080262000612565b1980831691505092915050565b5f6200064983836200061e565b9150826002028217905092915050565b62000664826200042b565b67ffffffffffffffff81111562000680576200067f6200022c565b5b6200068c825462000462565b62000699828285620005c2565b5f60209050601f831160018114620006cf575f8415620006ba578287015190505b620006c685826200063c565b86555062000735565b601f198416620006df8662000496565b5f5b828110156200070857848901518255600182019150602085019450602081019050620006e1565b8683101562000728578489015162000724601f8916826200061e565b8355505b6001600288020188555050505b505050505050565b614e8c806200074b5f395ff3fe608060405234801561000f575f80fd5b506004361061025b575f3560e01c80636eb78e6511610144578063a8f6c913116100c1578063cd4f6a2e11610085578063cd4f6a2e14610809578063d0febe4c14610839578063d7c97fb414610843578063e262113f14610861578063e985e9c514610891578063f242432a146108c15761025b565b8063a8f6c9131461074c578063b11226741461076a578063c20805b414610786578063c3736fe6146107b6578063caaf2751146107d45761025b565b806392162bc41161010857806392162bc4146106695780639cd777dd1461069e5780639ea4695d146106ce578063a090f47c14610700578063a22cb465146107305761025b565b80636eb78e65146105b157806371abaf28146105e15780638577a701146105ff57806386963b671461061b5780638da5cb5b1461064b5761025b565b80632df9f549116101dd5780634b993001116101a15780634b993001146104c35780634e1273f4146104f35780635848c95c146105235780635c57930414610541578063642351511461055f5780636d47ab721461057b5761025b565b80632df9f549146103f95780632eb2c2d614610417578063344b5d51146104335780633df5226d1461046357806347ee6e3c146104935761025b565b8063130aa81f11610224578063130aa81f1461035157806313945c17146103875780631b3658c8146103a3578063206a810f146103bf5780632a28d4df146103db5761025b565b8062fdd58e1461025f57806301ffc9a71461028f5780630bf53668146102bf5780630e89341c146102f1578063100b6ba214610321575b5f80fd5b610279600480360381019061027491906135bc565b6108dd565b6040516102869190613609565b60405180910390f35b6102a960048036038101906102a49190613677565b610932565b6040516102b691906136bc565b60405180910390f35b6102d960048036038101906102d491906136d5565b610a13565b6040516102e8939291906137a2565b60405180910390f35b61030b600480360381019061030691906137de565b610abf565b6040516103189190613809565b60405180910390f35b61033b60048036038101906103369190613853565b610b51565b6040516103489190613609565b60405180910390f35b61036b60048036038101906103669190613853565b610b66565b60405161037e97969594939291906139ec565b60405180910390f35b6103a1600480360381019061039c9190613bb6565b610fb2565b005b6103bd60048036038101906103b89190613c10565b61113e565b005b6103d960048036038101906103d491906135bc565b6112ac565b005b6103e36113eb565b6040516103f09190613d08565b60405180910390f35b610401611410565b60405161040e9190613609565b60405180910390f35b610431600480360381019061042c9190613e83565b611415565b005b61044d60048036038101906104489190613f4e565b6114bc565b60405161045a91906136bc565b60405180910390f35b61047d600480360381019061047891906135bc565b6114e8565b60405161048a9190613609565b60405180910390f35b6104ad60048036038101906104a891906137de565b6114fb565b6040516104ba9190613f9b565b60405180910390f35b6104dd60048036038101906104d89190613fb4565b611536565b6040516104ea9190613ff2565b60405180910390f35b61050d600480360381019061050891906140cb565b611561565b60405161051a9190614141565b60405180910390f35b61052b61166e565b6040516105389190613609565b60405180910390f35b610549611672565b6040516105569190614181565b60405180910390f35b6105796004803603810190610574919061419a565b611697565b005b610595600480360381019061059091906136d5565b61188a565b6040516105a8979695949392919061422d565b60405180910390f35b6105cb60048036038101906105c691906137de565b6118c8565b6040516105d89190613f9b565b60405180910390f35b6105e9611903565b6040516105f69190613609565b60405180910390f35b61061960048036038101906106149190613f4e565b6119a2565b005b6106356004803603810190610630919061429a565b6119f1565b6040516106429190613609565b60405180910390f35b610653611bb7565b6040516106609190613f9b565b60405180910390f35b610683600480360381019061067e9190613853565b611bdc565b60405161069596959493929190614323565b60405180910390f35b6106b860048036038101906106b39190613fb4565b611ff8565b6040516106c59190613ff2565b60405180910390f35b6106e860048036038101906106e39190613853565b612023565b6040516106f7939291906143ac565b60405180910390f35b61071a60048036038101906107159190613853565b6121eb565b6040516107279190613ff2565b60405180910390f35b61074a60048036038101906107459190614420565b612200565b005b610754612216565b6040516107619190613f9b565b60405180910390f35b610784600480360381019061077f919061445e565b61223b565b005b6107a0600480360381019061079b9190613853565b61250e565b6040516107ad9190613ff2565b60405180910390f35b6107be612523565b6040516107cb9190613609565b60405180910390f35b6107ee60048036038101906107e991906137de565b6125c2565b604051610800969594939291906144ae565b60405180910390f35b610823600480360381019061081e9190613853565b6125fa565b6040516108309190613ff2565b60405180910390f35b61084161260f565b005b61084b61274d565b6040516108589190613f9b565b60405180910390f35b61087b60048036038101906108769190613fb4565b612772565b6040516108889190613ff2565b60405180910390f35b6108ab60048036038101906108a6919061450d565b61279d565b6040516108b891906136bc565b60405180910390f35b6108db60048036038101906108d6919061454b565b61282b565b005b5f805f8381526020019081526020015f205f8473ffffffffffffffffffffffffffffffffffffffff1673ffffffffffffffffffffffffffffffffffffffff1681526020019081526020015f2054905092915050565b5f7fd9b67a26000000000000000000000000000000000000000000000000000000007bffffffffffffffffffffffffffffffffffffffffffffffffffffffff1916827bffffffffffffffffffffffffffffffffffffffffffffffffffffffff191614806109fc57507f0e89341c000000000000000000000000000000000000000000000000000000007bffffffffffffffffffffffffffffffffffffffffffffffffffffffff1916827bffffffffffffffffffffffffffffffffffffffffffffffffffffffff1916145b80610a0c5750610a0b826128d2565b5b9050919050565b600d602052805f5260405f205f91509050805f015490806001015490806002018054610a3e9061460b565b80601f0160208091040260200160405190810160405280929190818152602001828054610a6a9061460b565b8015610ab55780601f10610a8c57610100808354040283529160200191610ab5565b820191905f5260205f20905b815481529060010190602001808311610a9857829003601f168201915b5050505050905083565b606060028054610ace9061460b565b80601f0160208091040260200160405190810160405280929190818152602001828054610afa9061460b565b8015610b455780601f10610b1c57610100808354040283529160200191610b45565b820191905f5260205f20905b815481529060010190602001808311610b2857829003601f168201915b50505050509050919050565b6010602052805f5260405f205f915090505481565b60608060608060608060605f60165f8a81526020019081526020015f20805480602002602001604051908101604052809291908181526020018280548015610bcb57602002820191905f5260205f20905b815481526020019060010190808311610bb7575b505050505090505f600a8054905090505f8167ffffffffffffffff811115610bf657610bf5613a92565b5b604051908082528060200260200182016040528015610c245781602001602082028036833780820191505090505b5090505f8267ffffffffffffffff811115610c4257610c41613a92565b5b604051908082528060200260200182016040528015610c705781602001602082028036833780820191505090505b5090505f8367ffffffffffffffff811115610c8e57610c8d613a92565b5b604051908082528060200260200182016040528015610cbc5781602001602082028036833780820191505090505b5090505f8467ffffffffffffffff811115610cda57610cd9613a92565b5b604051908082528060200260200182016040528015610d085781602001602082028036833780820191505090505b5090505f8567ffffffffffffffff811115610d2657610d25613a92565b5b604051908082528060200260200182016040528015610d545781602001602082028036833780820191505090505b5090505f8667ffffffffffffffff811115610d7257610d71613a92565b5b604051908082528060200260200182016040528015610da05781602001602082028036833780820191505090505b5090505f8767ffffffffffffffff811115610dbe57610dbd613a92565b5b604051908082528060200260200182016040528015610dec5781602001602082028036833780820191505090505b5090505f5b88811015610f88575f600a8281548110610e0e57610e0d61463b565b5b905f5260205f20015f9054906101000a900473ffffffffffffffffffffffffffffffffffffffff1690505f60095f8373ffffffffffffffffffffffffffffffffffffffff1673ffffffffffffffffffffffffffffffffffffffff1681526020019081526020015f209050805f01548a8481518110610e8f57610e8e61463b565b5b6020026020010181815250508060010154898481518110610eb357610eb261463b565b5b6020026020010181815250508060020154888481518110610ed757610ed661463b565b5b6020026020010181815250508060030154878481518110610efb57610efa61463b565b5b6020026020010181815250508060040154868481518110610f1f57610f1e61463b565b5b6020026020010181815250508060050154858481518110610f4357610f4261463b565b5b6020026020010181815250508060060154848481518110610f6757610f6661463b565b5b60200260200101818152505050508080610f8090614695565b915050610df1565b50868686868686869f509f509f509f509f509f509f50505050505050505050919395979092949650565b5f6040518060600160405280600854815260200184815260200183815250905080600d5f3373ffffffffffffffffffffffffffffffffffffffff1673ffffffffffffffffffffffffffffffffffffffff1681526020019081526020015f205f820151815f01556020820151816001015560408201518160020190816110379190614870565b5090505060085f81548092919061104d90614695565b9190505550600e33908060018154018082558091505060019003905f5260205f20015f9091909190916101000a81548173ffffffffffffffffffffffffffffffffffffffff021916908373ffffffffffffffffffffffffffffffffffffffff16021790555060035f9054906101000a900473ffffffffffffffffffffffffffffffffffffffff1673ffffffffffffffffffffffffffffffffffffffff1663eb25acca336040518263ffffffff1660e01b815260040161110c9190613f9b565b5f604051808303815f87803b158015611123575f80fd5b505af1158015611135573d5f803e3d5ffd5b50505050505050565b6040518060e0016040528060065481526020018781526020018681526020018581526020018481526020018381526020018281525060095f3373ffffffffffffffffffffffffffffffffffffffff1673ffffffffffffffffffffffffffffffffffffffff1681526020019081526020015f205f820151815f01556020820151816001015560408201518160020155606082015181600301556080820151816004015560a0820151816005015560c0820151816006015590505060065f81548092919061120990614695565b9190505550600a33908060018154018082558091505060019003905f5260205f20015f9091909190916101000a81548173ffffffffffffffffffffffffffffffffffffffff021916908373ffffffffffffffffffffffffffffffffffffffff16021790555060165f8881526020019081526020015f2084908060018154018082558091505060019003905f5260205f20015f909190919091505550505050505050565b5f600267ffffffffffffffff8111156112c8576112c7613a92565b5b6040519080825280602002602001820160405280156112f65781602001602082028036833780820191505090505b5090505f600267ffffffffffffffff81111561131557611314613a92565b5b6040519080825280602002602001820160405280156113435781602001602082028036833780820191505090505b5090505f825f8151811061135a5761135961463b565b5b60200260200101818152505060018260018151811061137c5761137b61463b565b5b60200260200101818152505082815f8151811061139c5761139b61463b565b5b6020026020010181815250506001816001815181106113be576113bd61463b565b5b6020026020010181815250506113e53385848460405180602001604052805f815250611415565b50505050565b60035f9054906101000a900473ffffffffffffffffffffffffffffffffffffffff1681565b600181565b5f61141e61293b565b90508073ffffffffffffffffffffffffffffffffffffffff168673ffffffffffffffffffffffffffffffffffffffff16141580156114635750611461868261279d565b155b156114a75780866040517fe237d92200000000000000000000000000000000000000000000000000000000815260040161149e92919061493f565b60405180910390fd5b6114b48686868686612942565b505050505050565b5f8160135f8581526020019081526020015f2054036114de57600190506114e2565b5f90505b92915050565b5f6114f383836108dd565b905092915050565b600e818154811061150a575f80fd5b905f5260205f20015f915054906101000a900473ffffffffffffffffffffffffffffffffffffffff1681565b6014602052815f5260405f20818154811061154f575f80fd5b905f5260205f20015f91509150505481565b606081518351146115ad57815183516040517f5b0599910000000000000000000000000000000000000000000000000000000081526004016115a4929190614966565b60405180910390fd5b5f835167ffffffffffffffff8111156115c9576115c8613a92565b5b6040519080825280602002602001820160405280156115f75781602001602082028036833780820191505090505b5090505f5b84518110156116635761163361161b8287612a3690919063ffffffff16565b61162e8387612a4990919063ffffffff16565b6108dd565b8282815181106116465761164561463b565b5b6020026020010181815250508061165c90614695565b90506115fc565b508091505092915050565b5f81565b60045f9054906101000a900473ffffffffffffffffffffffffffffffffffffffff1681565b836116a2865f6108dd565b10156116e3576040517f08c379a00000000000000000000000000000000000000000000000000000000081526004016116da906149d7565b60405180910390fd5b8273ffffffffffffffffffffffffffffffffffffffff1660045f9054906101000a900473ffffffffffffffffffffffffffffffffffffffff1673ffffffffffffffffffffffffffffffffffffffff16636352211e846040518263ffffffff1660e01b81526004016117549190613609565b602060405180830381865afa15801561176f573d5f803e3d5ffd5b505050506040513d601f19601f820116820180604052508101906117939190614a09565b73ffffffffffffffffffffffffffffffffffffffff16146117e9576040517f08c379a00000000000000000000000000000000000000000000000000000000081526004016117e090614aa4565b60405180910390fd5b6117f685845f878561282b565b60045f9054906101000a900473ffffffffffffffffffffffffffffffffffffffff1673ffffffffffffffffffffffffffffffffffffffff1663b88d4fde848785856040518563ffffffff1660e01b81526004016118569493929190614b14565b5f604051808303815f87803b15801561186d575f80fd5b505af115801561187f573d5f803e3d5ffd5b505050505050505050565b6009602052805f5260405f205f91509050805f0154908060010154908060020154908060030154908060040154908060050154908060060154905087565b600a81815481106118d7575f80fd5b905f5260205f20015f915054906101000a900473ffffffffffffffffffffffffffffffffffffffff1681565b5f60045f9054906101000a900473ffffffffffffffffffffffffffffffffffffffff1673ffffffffffffffffffffffffffffffffffffffff1663f5b100ea336040518263ffffffff1660e01b815260040161195e9190613f9b565b602060405180830381865afa158015611979573d5f803e3d5ffd5b505050506040513d601f19601f8201168201806040525081019061199d9190614b72565b905090565b60145f8281526020019081526020015f2082908060018154018082558091505060019003905f5260205f20015f90919091909150558060125f8481526020019081526020015f20819055505050565b5f8060175f815480929190611a0590614695565b91905055905060045f9054906101000a900473ffffffffffffffffffffffffffffffffffffffff1673ffffffffffffffffffffffffffffffffffffffff16633c168eab89836040518363ffffffff1660e01b8152600401611a67929190614b9d565b5f604051808303815f87803b158015611a7e575f80fd5b505af1158015611a90573d5f803e3d5ffd5b505050508773ffffffffffffffffffffffffffffffffffffffff167fa7abc899597d957e26e4172d3a9e7e71817e94a4715325c7af7ca276e46e90e482604051611ada9190613609565b60405180910390a26040518060c001604052808281526020018681526020018781526020018581526020018481526020017f417661696c61626c650000000000000000000000000000000000000000000000815250600f5f8381526020019081526020015f205f820151815f01556020820151816001015560408201518160020155606082015181600301556080820151816004015560a082015181600501559050508060105f8781526020019081526020015f20819055508660115f8781526020019081526020015f2081905550809150509695505050505050565b60055f9054906101000a900473ffffffffffffffffffffffffffffffffffffffff1681565b6060806060806060805f60145f8981526020019081526020015f20805480602002602001604051908101604052809291908181526020018280548015611c3f57602002820191905f5260205f20905b815481526020019060010190808311611c2b575b505050505090505f8060075467ffffffffffffffff811115611c6457611c63613a92565b5b604051908082528060200260200182016040528015611c925781602001602082028036833780820191505090505b5090505f60075467ffffffffffffffff811115611cb257611cb1613a92565b5b604051908082528060200260200182016040528015611ce05781602001602082028036833780820191505090505b5090505f60075467ffffffffffffffff811115611d0057611cff613a92565b5b604051908082528060200260200182016040528015611d2e5781602001602082028036833780820191505090505b5090505f60075467ffffffffffffffff811115611d4e57611d4d613a92565b5b604051908082528060200260200182016040528015611d7c5781602001602082028036833780820191505090505b5090505f60075467ffffffffffffffff811115611d9c57611d9b613a92565b5b604051908082528060200260200182016040528015611dca5781602001602082028036833780820191505090505b5090505f60075467ffffffffffffffff811115611dea57611de9613a92565b5b604051908082528060200260200182016040528015611e185781602001602082028036833780820191505090505b5090505f5b600754811015611fd4575f5b8951811015611fc057898181518110611e4557611e4461463b565b5b6020026020010151600f5f8481526020019081526020015f206001015403611fad57600f5f8381526020019081526020015f205f0154888a81518110611e8e57611e8d61463b565b5b602002602001018181525050600f5f8381526020019081526020015f2060010154878a81518110611ec257611ec161463b565b5b602002602001018181525050600f5f8381526020019081526020015f2060020154868a81518110611ef657611ef561463b565b5b602002602001018181525050600f5f8381526020019081526020015f2060030154858a81518110611f2a57611f2961463b565b5b602002602001018181525050600f5f8381526020019081526020015f2060040154848a81518110611f5e57611f5d61463b565b5b602002602001018181525050600f5f8381526020019081526020015f2060050154838a81518110611f9257611f9161463b565b5b6020026020010181815250508880611fa990614695565b9950505b8080611fb890614695565b915050611e29565b508080611fcc90614695565b915050611e1d565b508585858585859d509d509d509d509d509d50505050505050505091939550919395565b6015602052815f5260405f208181548110612011575f80fd5b905f5260205f20015f91509150505481565b60608060605f60155f8681526020019081526020015f2080548060200260200160405190810160405280929190818152602001828054801561208257602002820191905f5260205f20905b81548152602001906001019080831161206e575b505050505090505f815167ffffffffffffffff8111156120a5576120a4613a92565b5b6040519080825280602002602001820160405280156120d35781602001602082028036833780820191505090505b5090505f825167ffffffffffffffff8111156120f2576120f1613a92565b5b6040519080825280602002602001820160405280156121205781602001602082028036833780820191505090505b5090505f5b83518110156121d75760125f8583815181106121445761214361463b565b5b602002602001015181526020019081526020015f205483828151811061216d5761216c61463b565b5b60200260200101818152505060115f85838151811061218f5761218e61463b565b5b602002602001015181526020019081526020015f20548282815181106121b8576121b761463b565b5b60200260200101818152505080806121cf90614695565b915050612125565b508282829550955095505050509193909250565b6012602052805f5260405f205f915090505481565b61221261220b61293b565b8383612a5c565b5050565b600b5f9054906101000a900473ffffffffffffffffffffffffffffffffffffffff1681565b5f805f806007541115612289575f91505b6007548210156122885785600f5f8481526020019081526020015f206001015403612275578190505b818061228090614695565b92505061224c565b5b600f5f8281526020019081526020015f206005015492507f417661696c61626c6500000000000000000000000000000000000000000000008303612506577f4e41000000000000000000000000000000000000000000000000000000000000600f5f8381526020019081526020015f20600501819055505f5b600e805490508110156123f15760035f9054906101000a900473ffffffffffffffffffffffffffffffffffffffff1673ffffffffffffffffffffffffffffffffffffffff16637c524ffc600e83815481106123605761235f61463b565b5b905f5260205f20015f9054906101000a900473ffffffffffffffffffffffffffffffffffffffff1633683627e8f712373c00006040518463ffffffff1660e01b81526004016123b193929190614bfd565b5f604051808303815f87803b1580156123c8575f80fd5b505af11580156123da573d5f803e3d5ffd5b5050505080806123e990614695565b915050612302565b5060045f9054906101000a900473ffffffffffffffffffffffffffffffffffffffff1673ffffffffffffffffffffffffffffffffffffffff1663b03066718533600e5f815481106124455761244461463b565b5b905f5260205f20015f9054906101000a900473ffffffffffffffffffffffffffffffffffffffff165f6040518563ffffffff1660e01b815260040161248d9493929190614c6b565b5f604051808303815f87803b1580156124a4575f80fd5b505af11580156124b6573d5f803e3d5ffd5b5050505060155f8681526020019081526020015f2086908060018154018082558091505060019003905f5260205f20015f90919091909150558460135f8881526020019081526020015f20819055505b505050505050565b6011602052805f5260405f205f915090505481565b5f60035f9054906101000a900473ffffffffffffffffffffffffffffffffffffffff1673ffffffffffffffffffffffffffffffffffffffff166312cae7af336040518263ffffffff1660e01b815260040161257e9190613f9b565b602060405180830381865afa158015612599573d5f803e3d5ffd5b505050506040513d601f19601f820116820180604052508101906125bd9190614b72565b905090565b600f602052805f5260405f205f91509050805f0154908060010154908060020154908060030154908060040154908060050154905086565b6013602052805f5260405f205f915090505481565b5f600267ffffffffffffffff81111561262b5761262a613a92565b5b6040519080825280602002602001820160405280156126595781602001602082028036833780820191505090505b5090505f600267ffffffffffffffff81111561267857612677613a92565b5b6040519080825280602002602001820160405280156126a65781602001602082028036833780820191505090505b5090505f825f815181106126bd576126bc61463b565b5b6020026020010181815250506001826001815181106126df576126de61463b565b5b6020026020010181815250506103e8815f815181106127015761270061463b565b5b602002602001018181525050600a816001815181106127235761272261463b565b5b60200260200101818152505061274933838360405180602001604052805f815250612bc5565b5050565b600c5f9054906101000a900473ffffffffffffffffffffffffffffffffffffffff1681565b6016602052815f5260405f20818154811061278b575f80fd5b905f5260205f20015f91509150505481565b5f60015f8473ffffffffffffffffffffffffffffffffffffffff1673ffffffffffffffffffffffffffffffffffffffff1681526020019081526020015f205f8373ffffffffffffffffffffffffffffffffffffffff1673ffffffffffffffffffffffffffffffffffffffff1681526020019081526020015f205f9054906101000a900460ff16905092915050565b5f61283461293b565b90508073ffffffffffffffffffffffffffffffffffffffff168673ffffffffffffffffffffffffffffffffffffffff16141580156128795750612877868261279d565b155b156128bd5780866040517fe237d9220000000000000000000000000000000000000000000000000000000081526004016128b492919061493f565b60405180910390fd5b6128ca8686868686612c48565b505050505050565b5f7f01ffc9a7000000000000000000000000000000000000000000000000000000007bffffffffffffffffffffffffffffffffffffffffffffffffffffffff1916827bffffffffffffffffffffffffffffffffffffffffffffffffffffffff1916149050919050565b5f33905090565b5f73ffffffffffffffffffffffffffffffffffffffff168473ffffffffffffffffffffffffffffffffffffffff16036129b2575f6040517f57f447ce0000000000000000000000000000000000000000000000000000000081526004016129a99190613f9b565b60405180910390fd5b5f73ffffffffffffffffffffffffffffffffffffffff168573ffffffffffffffffffffffffffffffffffffffff1603612a22575f6040517f01a83514000000000000000000000000000000000000000000000000000000008152600401612a199190613f9b565b60405180910390fd5b612a2f8585858585612d4e565b5050505050565b5f60208202602084010151905092915050565b5f60208202602084010151905092915050565b5f73ffffffffffffffffffffffffffffffffffffffff168273ffffffffffffffffffffffffffffffffffffffff1603612acc575f6040517fced3e100000000000000000000000000000000000000000000000000000000008152600401612ac39190613f9b565b60405180910390fd5b8060015f8573ffffffffffffffffffffffffffffffffffffffff1673ffffffffffffffffffffffffffffffffffffffff1681526020019081526020015f205f8473ffffffffffffffffffffffffffffffffffffffff1673ffffffffffffffffffffffffffffffffffffffff1681526020019081526020015f205f6101000a81548160ff0219169083151502179055508173ffffffffffffffffffffffffffffffffffffffff168373ffffffffffffffffffffffffffffffffffffffff167f17307eab39ab6107e8899845ad3d59bd9653f200f220920489ca2b5937696c3183604051612bb891906136bc565b60405180910390a3505050565b5f73ffffffffffffffffffffffffffffffffffffffff168473ffffffffffffffffffffffffffffffffffffffff1603612c35575f6040517f57f447ce000000000000000000000000000000000000000000000000000000008152600401612c2c9190613f9b565b60405180910390fd5b612c425f85858585612d4e565b50505050565b5f73ffffffffffffffffffffffffffffffffffffffff168473ffffffffffffffffffffffffffffffffffffffff1603612cb8575f6040517f57f447ce000000000000000000000000000000000000000000000000000000008152600401612caf9190613f9b565b60405180910390fd5b5f73ffffffffffffffffffffffffffffffffffffffff168573ffffffffffffffffffffffffffffffffffffffff1603612d28575f6040517f01a83514000000000000000000000000000000000000000000000000000000008152600401612d1f9190613f9b565b60405180910390fd5b5f80612d348585612dfa565b91509150612d458787848487612d4e565b50505050505050565b612d5a85858585612e2a565b5f73ffffffffffffffffffffffffffffffffffffffff168473ffffffffffffffffffffffffffffffffffffffff1614612df3575f612d9661293b565b90506001845103612de2575f612db55f86612a4990919063ffffffff16565b90505f612dcb5f86612a4990919063ffffffff16565b9050612ddb8389898585896131c0565b5050612df1565b612df081878787878761336f565b5b505b5050505050565b60608060405191506001825283602083015260408201905060018152826020820152604081016040529250929050565b8051825114612e7457815181516040517f5b059991000000000000000000000000000000000000000000000000000000008152600401612e6b929190614966565b60405180910390fd5b5f612e7d61293b565b90505f5b835181101561307f575f612e9e8286612a4990919063ffffffff16565b90505f612eb48386612a4990919063ffffffff16565b90505f73ffffffffffffffffffffffffffffffffffffffff168873ffffffffffffffffffffffffffffffffffffffff1614612fd7575f805f8481526020019081526020015f205f8a73ffffffffffffffffffffffffffffffffffffffff1673ffffffffffffffffffffffffffffffffffffffff1681526020019081526020015f2054905081811015612f8357888183856040517f03dee4c5000000000000000000000000000000000000000000000000000000008152600401612f7a9493929190614cae565b60405180910390fd5b8181035f808581526020019081526020015f205f8b73ffffffffffffffffffffffffffffffffffffffff1673ffffffffffffffffffffffffffffffffffffffff1681526020019081526020015f2081905550505b5f73ffffffffffffffffffffffffffffffffffffffff168773ffffffffffffffffffffffffffffffffffffffff161461306c57805f808481526020019081526020015f205f8973ffffffffffffffffffffffffffffffffffffffff1673ffffffffffffffffffffffffffffffffffffffff1681526020019081526020015f205f8282546130649190614cf1565b925050819055505b50508061307890614695565b9050612e81565b50600183510361313a575f61309d5f85612a4990919063ffffffff16565b90505f6130b35f85612a4990919063ffffffff16565b90508573ffffffffffffffffffffffffffffffffffffffff168773ffffffffffffffffffffffffffffffffffffffff168473ffffffffffffffffffffffffffffffffffffffff167fc3d58168c5ae7397731d063d5bbf3d657854427343f4c083240f7aacaa2d0f62858560405161312b929190614966565b60405180910390a450506131b9565b8373ffffffffffffffffffffffffffffffffffffffff168573ffffffffffffffffffffffffffffffffffffffff168273ffffffffffffffffffffffffffffffffffffffff167f4a39dc06d4c0dbc64b70af90fd698a233a518aa5d07e595d983b8c0526c8f7fb86866040516131b0929190614d24565b60405180910390a45b5050505050565b5f8473ffffffffffffffffffffffffffffffffffffffff163b1115613367578373ffffffffffffffffffffffffffffffffffffffff1663f23a6e6187878686866040518663ffffffff1660e01b8152600401613220959493929190614d59565b6020604051808303815f875af192505050801561325b57506040513d601f19601f820116820180604052508101906132589190614dc5565b60015b6132dc573d805f8114613289576040519150601f19603f3d011682016040523d82523d5f602084013e61328e565b606091505b505f8151036132d457846040517f57f447ce0000000000000000000000000000000000000000000000000000000081526004016132cb9190613f9b565b60405180910390fd5b805181602001fd5b63f23a6e6160e01b7bffffffffffffffffffffffffffffffffffffffffffffffffffffffff1916817bffffffffffffffffffffffffffffffffffffffffffffffffffffffff19161461336557846040517f57f447ce00000000000000000000000000000000000000000000000000000000815260040161335c9190613f9b565b60405180910390fd5b505b505050505050565b5f8473ffffffffffffffffffffffffffffffffffffffff163b1115613516578373ffffffffffffffffffffffffffffffffffffffff1663bc197c8187878686866040518663ffffffff1660e01b81526004016133cf959493929190614df0565b6020604051808303815f875af192505050801561340a57506040513d601f19601f820116820180604052508101906134079190614dc5565b60015b61348b573d805f8114613438576040519150601f19603f3d011682016040523d82523d5f602084013e61343d565b606091505b505f81510361348357846040517f57f447ce00000000000000000000000000000000000000000000000000000000815260040161347a9190613f9b565b60405180910390fd5b805181602001fd5b63bc197c8160e01b7bffffffffffffffffffffffffffffffffffffffffffffffffffffffff1916817bffffffffffffffffffffffffffffffffffffffffffffffffffffffff19161461351457846040517f57f447ce00000000000000000000000000000000000000000000000000000000815260040161350b9190613f9b565b60405180910390fd5b505b505050505050565b5f604051905090565b5f80fd5b5f80fd5b5f73ffffffffffffffffffffffffffffffffffffffff82169050919050565b5f6135588261352f565b9050919050565b6135688161354e565b8114613572575f80fd5b50565b5f813590506135838161355f565b92915050565b5f819050919050565b61359b81613589565b81146135a5575f80fd5b50565b5f813590506135b681613592565b92915050565b5f80604083850312156135d2576135d1613527565b5b5f6135df85828601613575565b92505060206135f0858286016135a8565b9150509250929050565b61360381613589565b82525050565b5f60208201905061361c5f8301846135fa565b92915050565b5f7fffffffff0000000000000000000000000000000000000000000000000000000082169050919050565b61365681613622565b8114613660575f80fd5b50565b5f813590506136718161364d565b92915050565b5f6020828403121561368c5761368b613527565b5b5f61369984828501613663565b91505092915050565b5f8115159050919050565b6136b6816136a2565b82525050565b5f6020820190506136cf5f8301846136ad565b92915050565b5f602082840312156136ea576136e9613527565b5b5f6136f784828501613575565b91505092915050565b5f819050919050565b61371281613700565b82525050565b5f81519050919050565b5f82825260208201905092915050565b5f5b8381101561374f578082015181840152602081019050613734565b5f8484015250505050565b5f601f19601f8301169050919050565b5f61377482613718565b61377e8185613722565b935061378e818560208601613732565b6137978161375a565b840191505092915050565b5f6060820190506137b55f8301866135fa565b6137c26020830185613709565b81810360408301526137d4818461376a565b9050949350505050565b5f602082840312156137f3576137f2613527565b5b5f613800848285016135a8565b91505092915050565b5f6020820190508181035f830152613821818461376a565b905092915050565b61383281613700565b811461383c575f80fd5b50565b5f8135905061384d81613829565b92915050565b5f6020828403121561386857613867613527565b5b5f6138758482850161383f565b91505092915050565b5f81519050919050565b5f82825260208201905092915050565b5f819050602082019050919050565b6138b081613589565b82525050565b5f6138c183836138a7565b60208301905092915050565b5f602082019050919050565b5f6138e38261387e565b6138ed8185613888565b93506138f883613898565b805f5b8381101561392857815161390f88826138b6565b975061391a836138cd565b9250506001810190506138fb565b5085935050505092915050565b5f81519050919050565b5f82825260208201905092915050565b5f819050602082019050919050565b61396781613700565b82525050565b5f613978838361395e565b60208301905092915050565b5f602082019050919050565b5f61399a82613935565b6139a4818561393f565b93506139af8361394f565b805f5b838110156139df5781516139c6888261396d565b97506139d183613984565b9250506001810190506139b2565b5085935050505092915050565b5f60e0820190508181035f830152613a04818a6138d9565b90508181036020830152613a188189613990565b90508181036040830152613a2c8188613990565b90508181036060830152613a408187613990565b90508181036080830152613a5481866138d9565b905081810360a0830152613a688185613990565b905081810360c0830152613a7c8184613990565b905098975050505050505050565b5f80fd5b5f80fd5b7f4e487b71000000000000000000000000000000000000000000000000000000005f52604160045260245ffd5b613ac88261375a565b810181811067ffffffffffffffff82111715613ae757613ae6613a92565b5b80604052505050565b5f613af961351e565b9050613b058282613abf565b919050565b5f67ffffffffffffffff821115613b2457613b23613a92565b5b613b2d8261375a565b9050602081019050919050565b828183375f83830152505050565b5f613b5a613b5584613b0a565b613af0565b905082815260208101848484011115613b7657613b75613a8e565b5b613b81848285613b3a565b509392505050565b5f82601f830112613b9d57613b9c613a8a565b5b8135613bad848260208601613b48565b91505092915050565b5f8060408385031215613bcc57613bcb613527565b5b5f613bd98582860161383f565b925050602083013567ffffffffffffffff811115613bfa57613bf961352b565b5b613c0685828601613b89565b9150509250929050565b5f805f805f805f60e0888a031215613c2b57613c2a613527565b5b5f613c388a828b0161383f565b9750506020613c498a828b0161383f565b9650506040613c5a8a828b0161383f565b9550506060613c6b8a828b0161383f565b9450506080613c7c8a828b016135a8565b93505060a0613c8d8a828b0161383f565b92505060c0613c9e8a828b0161383f565b91505092959891949750929550565b5f819050919050565b5f613cd0613ccb613cc68461352f565b613cad565b61352f565b9050919050565b5f613ce182613cb6565b9050919050565b5f613cf282613cd7565b9050919050565b613d0281613ce8565b82525050565b5f602082019050613d1b5f830184613cf9565b92915050565b5f67ffffffffffffffff821115613d3b57613d3a613a92565b5b602082029050602081019050919050565b5f80fd5b5f613d62613d5d84613d21565b613af0565b90508083825260208201905060208402830185811115613d8557613d84613d4c565b5b835b81811015613dae5780613d9a88826135a8565b845260208401935050602081019050613d87565b5050509392505050565b5f82601f830112613dcc57613dcb613a8a565b5b8135613ddc848260208601613d50565b91505092915050565b5f67ffffffffffffffff821115613dff57613dfe613a92565b5b613e088261375a565b9050602081019050919050565b5f613e27613e2284613de5565b613af0565b905082815260208101848484011115613e4357613e42613a8e565b5b613e4e848285613b3a565b509392505050565b5f82601f830112613e6a57613e69613a8a565b5b8135613e7a848260208601613e15565b91505092915050565b5f805f805f60a08688031215613e9c57613e9b613527565b5b5f613ea988828901613575565b9550506020613eba88828901613575565b945050604086013567ffffffffffffffff811115613edb57613eda61352b565b5b613ee788828901613db8565b935050606086013567ffffffffffffffff811115613f0857613f0761352b565b5b613f1488828901613db8565b925050608086013567ffffffffffffffff811115613f3557613f3461352b565b5b613f4188828901613e56565b9150509295509295909350565b5f8060408385031215613f6457613f63613527565b5b5f613f718582860161383f565b9250506020613f828582860161383f565b9150509250929050565b613f958161354e565b82525050565b5f602082019050613fae5f830184613f8c565b92915050565b5f8060408385031215613fca57613fc9613527565b5b5f613fd78582860161383f565b9250506020613fe8858286016135a8565b9150509250929050565b5f6020820190506140055f830184613709565b92915050565b5f67ffffffffffffffff82111561402557614024613a92565b5b602082029050602081019050919050565b5f6140486140438461400b565b613af0565b9050808382526020820190506020840283018581111561406b5761406a613d4c565b5b835b8181101561409457806140808882613575565b84526020840193505060208101905061406d565b5050509392505050565b5f82601f8301126140b2576140b1613a8a565b5b81356140c2848260208601614036565b91505092915050565b5f80604083850312156140e1576140e0613527565b5b5f83013567ffffffffffffffff8111156140fe576140fd61352b565b5b61410a8582860161409e565b925050602083013567ffffffffffffffff81111561412b5761412a61352b565b5b61413785828601613db8565b9150509250929050565b5f6020820190508181035f83015261415981846138d9565b905092915050565b5f61416b82613cd7565b9050919050565b61417b81614161565b82525050565b5f6020820190506141945f830184614172565b92915050565b5f805f805f60a086880312156141b3576141b2613527565b5b5f6141c088828901613575565b95505060206141d1888289016135a8565b94505060406141e288828901613575565b93505060606141f3888289016135a8565b925050608086013567ffffffffffffffff8111156142145761421361352b565b5b61422088828901613e56565b9150509295509295909350565b5f60e0820190506142405f83018a6135fa565b61424d6020830189613709565b61425a6040830188613709565b6142676060830187613709565b61427460808301866135fa565b61428160a0830185613709565b61428e60c0830184613709565b98975050505050505050565b5f805f805f8060c087890312156142b4576142b3613527565b5b5f6142c189828a01613575565b96505060206142d289828a0161383f565b95505060406142e389828a0161383f565b94505060606142f489828a0161383f565b935050608061430589828a0161383f565b92505060a061431689828a016135a8565b9150509295509295509295565b5f60c0820190508181035f83015261433b81896138d9565b9050818103602083015261434f8188613990565b905081810360408301526143638187613990565b905081810360608301526143778186613990565b9050818103608083015261438b81856138d9565b905081810360a083015261439f8184613990565b9050979650505050505050565b5f6060820190508181035f8301526143c48186613990565b905081810360208301526143d88185613990565b905081810360408301526143ec8184613990565b9050949350505050565b6143ff816136a2565b8114614409575f80fd5b50565b5f8135905061441a816143f6565b92915050565b5f806040838503121561443657614435613527565b5b5f61444385828601613575565b92505060206144548582860161440c565b9150509250929050565b5f805f6060848603121561447557614474613527565b5b5f6144828682870161383f565b93505060206144938682870161383f565b92505060406144a486828701613575565b9150509250925092565b5f60c0820190506144c15f8301896135fa565b6144ce6020830188613709565b6144db6040830187613709565b6144e86060830186613709565b6144f560808301856135fa565b61450260a0830184613709565b979650505050505050565b5f806040838503121561452357614522613527565b5b5f61453085828601613575565b925050602061454185828601613575565b9150509250929050565b5f805f805f60a0868803121561456457614563613527565b5b5f61457188828901613575565b955050602061458288828901613575565b9450506040614593888289016135a8565b93505060606145a4888289016135a8565b925050608086013567ffffffffffffffff8111156145c5576145c461352b565b5b6145d188828901613e56565b9150509295509295909350565b7f4e487b71000000000000000000000000000000000000000000000000000000005f52602260045260245ffd5b5f600282049050600182168061462257607f821691505b602082108103614635576146346145de565b5b50919050565b7f4e487b71000000000000000000000000000000000000000000000000000000005f52603260045260245ffd5b7f4e487b71000000000000000000000000000000000000000000000000000000005f52601160045260245ffd5b5f61469f82613589565b91507fffffffffffffffffffffffffffffffffffffffffffffffffffffffffffffffff82036146d1576146d0614668565b5b600182019050919050565b5f819050815f5260205f209050919050565b5f6020601f8301049050919050565b5f82821b905092915050565b5f600883026147387fffffffffffffffffffffffffffffffffffffffffffffffffffffffffffffffff826146fd565b61474286836146fd565b95508019841693508086168417925050509392505050565b5f61477461476f61476a84613589565b613cad565b613589565b9050919050565b5f819050919050565b61478d8361475a565b6147a16147998261477b565b848454614709565b825550505050565b5f90565b6147b56147a9565b6147c0818484614784565b505050565b5b818110156147e3576147d85f826147ad565b6001810190506147c6565b5050565b601f821115614828576147f9816146dc565b614802846146ee565b81016020851015614811578190505b61482561481d856146ee565b8301826147c5565b50505b505050565b5f82821c905092915050565b5f6148485f198460080261482d565b1980831691505092915050565b5f6148608383614839565b9150826002028217905092915050565b61487982613718565b67ffffffffffffffff81111561489257614891613a92565b5b61489c825461460b565b6148a78282856147e7565b5f60209050601f8311600181146148d8575f84156148c6578287015190505b6148d08582614855565b865550614937565b601f1984166148e6866146dc565b5f5b8281101561490d578489015182556001820191506020850194506020810190506148e8565b8683101561492a5784890151614926601f891682614839565b8355505b6001600288020188555050505b505050505050565b5f6040820190506149525f830185613f8c565b61495f6020830184613f8c565b9392505050565b5f6040820190506149795f8301856135fa565b61498660208301846135fa565b9392505050565b7f496e73756666696369656e74204552432d32302062616c616e636500000000005f82015250565b5f6149c1601b83613722565b91506149cc8261498d565b602082019050919050565b5f6020820190508181035f8301526149ee816149b5565b9050919050565b5f81519050614a038161355f565b92915050565b5f60208284031215614a1e57614a1d613527565b5b5f614a2b848285016149f5565b91505092915050565b7f43616c6c657220646f6573206e6f74206f776e204552432d37323120746f6b655f8201527f6e00000000000000000000000000000000000000000000000000000000000000602082015250565b5f614a8e602183613722565b9150614a9982614a34565b604082019050919050565b5f6020820190508181035f830152614abb81614a82565b9050919050565b5f81519050919050565b5f82825260208201905092915050565b5f614ae682614ac2565b614af08185614acc565b9350614b00818560208601613732565b614b098161375a565b840191505092915050565b5f608082019050614b275f830187613f8c565b614b346020830186613f8c565b614b4160408301856135fa565b8181036060830152614b538184614adc565b905095945050505050565b5f81519050614b6c81613592565b92915050565b5f60208284031215614b8757614b86613527565b5b5f614b9484828501614b5e565b91505092915050565b5f604082019050614bb05f830185613f8c565b614bbd60208301846135fa565b9392505050565b5f819050919050565b5f614be7614be2614bdd84614bc4565b613cad565b613589565b9050919050565b614bf781614bcd565b82525050565b5f606082019050614c105f830186613f8c565b614c1d6020830185613f8c565b614c2a6040830184614bee565b949350505050565b5f819050919050565b5f614c55614c50614c4b84614c32565b613cad565b613589565b9050919050565b614c6581614c3b565b82525050565b5f608082019050614c7e5f830187613f8c565b614c8b6020830186613f8c565b614c986040830185613f8c565b614ca56060830184614c5c565b95945050505050565b5f608082019050614cc15f830187613f8c565b614cce60208301866135fa565b614cdb60408301856135fa565b614ce860608301846135fa565b95945050505050565b5f614cfb82613589565b9150614d0683613589565b9250828201905080821115614d1e57614d1d614668565b5b92915050565b5f6040820190508181035f830152614d3c81856138d9565b90508181036020830152614d5081846138d9565b90509392505050565b5f60a082019050614d6c5f830188613f8c565b614d796020830187613f8c565b614d8660408301866135fa565b614d9360608301856135fa565b8181036080830152614da58184614adc565b90509695505050505050565b5f81519050614dbf8161364d565b92915050565b5f60208284031215614dda57614dd9613527565b5b5f614de784828501614db1565b91505092915050565b5f60a082019050614e035f830188613f8c565b614e106020830187613f8c565b8181036040830152614e2281866138d9565b90508181036060830152614e3681856138d9565b90508181036080830152614e4a8184614adc565b9050969550505050505056fea26469706673582212202ea3c4c9ab886cec53b53ab2469231d688a666dc394c0ae1b712920094f0e24664736f6c63430008140033",
  "immutableReferences": {},
  "source": "\r\n// SPDX-License-Identifier: MIT\r\npragma solidity ^0.8.20;\r\n\r\nimport \"@openzeppelin/contracts/token/ERC1155/ERC1155.sol\";\r\nimport \"./Product20.sol\";\r\nimport \"./ProductNFT.sol\";\r\ncontract product1155 is ERC1155{\r\n\r\n\r\n    Product20 public productContract;\r\n    ProductNFT public productNFTContract;\r\n    address public owner;\r\n\r\n    uint256 sellerCount =0;\r\n    uint256 productCount;\r\n\r\n    uint256 consumerCount=0;\r\n\r\n    uint256 public constant CFTID = 0;\r\n    uint256 public constant NFTID = 1;\r\n\r\n    struct seller{\r\n        uint256 sellerId;\r\n        bytes32 sellerName;\r\n        bytes32 sellerBrand;\r\n        bytes32 sellerCode;\r\n        uint256 sellerNum;\r\n        bytes32 sellerManager;\r\n        bytes32 sellerAddress;\r\n    }\r\n    //mapping(uint=>seller) public sellers;\r\n    mapping(address=>seller) public sellers;\r\n    address[] public sellerAddresses;\r\n\r\n    address public erc20Contract;\r\n    address public erc721Contract;\r\n    struct productItem{\r\n        uint256 productId;\r\n        bytes32 productSN;\r\n        bytes32 productName;\r\n        bytes32 productBrand;\r\n        uint256 productPrice;\r\n        bytes32 productStatus;\r\n    }\r\n    struct Consumer {\r\n        uint256 consumerId; // Unique identifier for consumers\r\n        bytes32 consumerCode; // Code for the consumer\r\n        string consumerName;\r\n    }\r\n    //mapping(uint => Consumer) public consumers; // Mapping of consumers\r\n    mapping(address => Consumer) public consumers; // Mapping of consumers\r\n    address[] public consumerAddresses;\r\n\r\n    mapping(uint256=>productItem) public productItems;\r\n    mapping(bytes32=>uint256) public productMap;\r\n    mapping(bytes32=>bytes32) public productsManufactured;\r\n    mapping(bytes32=>bytes32) public productsForSale;\r\n    mapping(bytes32=>bytes32) public productsSold;\r\n    mapping(bytes32=>bytes32[]) public productsWithSeller;\r\n    mapping(bytes32=>bytes32[]) public productsWithConsumer;\r\n    mapping(bytes32=>bytes32[]) public sellersWithManufacturer;\r\n\r\n    uint256 private nextTokenId = 0;\r\n    event Qrgenerated(address indexed recipient, uint256 tokenId);\r\n\r\n\r\n    constructor(address _productContractAddress, address _productNFTContractAddress,uint256 id, uint256 amount, bytes memory data) ERC1155(\"id, amount, data\") {\r\n        \r\n        owner = msg.sender;\r\n        productContract = Product20(_productContractAddress);\r\n        productNFTContract = ProductNFT(_productNFTContractAddress);\r\n    }\r\n\r\n\r\n        function registerConsumer(bytes32 _consumerCode, string memory _consumerName) public {\r\n            Consumer memory newConsumer = Consumer({\r\n                consumerId: consumerCount,\r\n                consumerCode: _consumerCode,\r\n                consumerName: _consumerName\r\n            });\r\n        \r\n            consumers[msg.sender] = newConsumer;\r\n            consumerCount++;\r\n            consumerAddresses.push(msg.sender);\r\n            productContract.mintCFT(msg.sender); \r\n        }\r\n        \r\n                   \r\n             \r\n    \r\n\r\n    function addSeller(bytes32 _manufacturerId, bytes32 _sellerName, bytes32 _sellerBrand, bytes32 _sellerCode,\r\n    uint256 _sellerNum, bytes32 _sellerManager, bytes32 _sellerAddress) public{\r\n        sellers[msg.sender] = seller({\r\n            sellerId: sellerCount,\r\n            sellerName: _sellerName,\r\n            sellerBrand: _sellerBrand,\r\n            sellerCode: _sellerCode,\r\n            sellerNum: _sellerNum,\r\n            sellerManager: _sellerManager,\r\n            sellerAddress: _sellerAddress\r\n        });\r\n        sellerCount++;\r\n        sellerAddresses.push(msg.sender);\r\n        sellersWithManufacturer[_manufacturerId].push(_sellerCode);\r\n    }\r\n\r\n    // function setERC20Address(address _erc20Contract) external {\r\n    //     require(erc20Contract == address(0), \"ERC20 address already set\");\r\n    //     erc20Contract = _erc20Contract;\r\n    // }\r\n\r\n    // function setERC721Address(address _erc721Contract) external {\r\n    //     require(erc721Contract == address(0), \"ERC721 address already set\");\r\n    //     erc721Contract = _erc721Contract;\r\n    // }\r\n\r\n    // function viewSellers () public view returns(uint256[] memory, bytes32[] memory, bytes32[] memory, bytes32[] memory, uint256[] memory, bytes32[] memory, bytes32[] memory) {\r\n    //     uint256[] memory ids = new uint256[](sellerCount);\r\n    //     bytes32[] memory snames = new bytes32[](sellerCount);\r\n    //     bytes32[] memory sbrands = new bytes32[](sellerCount);\r\n    //     bytes32[] memory scodes = new bytes32[](sellerCount);\r\n    //     uint256[] memory snums = new uint256[](sellerCount);\r\n    //     bytes32[] memory smanagers = new bytes32[](sellerCount);\r\n    //     bytes32[] memory saddress = new bytes32[](sellerCount);\r\n        \r\n    //     for(uint i=0; i<sellerCount; i++){\r\n    //         ids[i] = sellers[i].sellerId;\r\n    //         snames[i] = sellers[i].sellerName;\r\n    //         sbrands[i] = sellers[i].sellerBrand;\r\n    //         scodes[i] = sellers[i].sellerCode;\r\n    //         snums[i] = sellers[i].sellerNum;\r\n    //         smanagers[i] = sellers[i].sellerManager;\r\n    //         saddress[i] = sellers[i].sellerAddress;\r\n    //     }\r\n    //     return(ids, snames, sbrands, scodes, snums, smanagers, saddress);\r\n    // }\r\n\r\n    //PRODUCT SECTION\r\n\r\n    function addProduct(\r\n        address _to,\r\n        bytes32 _manufactuerID,\r\n        bytes32  _productName,\r\n        bytes32  _productSN,\r\n        bytes32  _productBrand,\r\n        uint256 _productPrice\r\n    ) external returns (uint256){\r\n        \r\n        uint256 tokenId = nextTokenId++;\r\n        productNFTContract.mintNFT(_to, tokenId);    \r\n        emit Qrgenerated(_to, tokenId);\r\n         productItems[tokenId] = productItem(tokenId, _productSN, _productName, _productBrand,\r\n        _productPrice, \"Available\");\r\n        productMap[_productSN] = tokenId;\r\n        productsManufactured[_productSN] = _manufactuerID;\r\n        return tokenId;\r\n    }\r\n\r\n    // function viewProductItems() external view returns(uint256[] memory, bytes32[] memory, bytes32[] memory, bytes32[] memory, uint256[] memory, bytes32[] memory) {\r\n    //     uint256[] memory pids = new uint256[](productCount);\r\n    //     bytes32[] memory pSNs = new bytes32[](productCount);\r\n    //     bytes32[] memory pnames = new bytes32[](productCount);\r\n    //     bytes32[] memory pbrands = new bytes32[](productCount);\r\n    //     uint256[] memory pprices = new uint256[](productCount);\r\n    //     bytes32[] memory pstatus = new bytes32[](productCount);\r\n        \r\n    //     for(uint i=0; i<productCount; i++){\r\n    //         pids[i] = productItems[i].productId;\r\n    //         pSNs[i] = productItems[i].productSN;\r\n    //         pnames[i] = productItems[i].productName;\r\n    //         pbrands[i] = productItems[i].productBrand;\r\n    //         pprices[i] = productItems[i].productPrice;\r\n    //         pstatus[i] = productItems[i].productStatus;\r\n    //     }\r\n    //     return(pids, pSNs, pnames, pbrands, pprices, pstatus);\r\n    // }\r\n\r\n    //SELL Product\r\n\r\n    function manufacturerSellProduct(bytes32 _productSN, bytes32 _sellerCode) public{\r\n        productsWithSeller[_sellerCode].push(_productSN);\r\n        productsForSale[_productSN] = _sellerCode;\r\n\r\n    }\r\n\r\n    function sellerSellProduct(bytes32 _productSN, bytes32 _consumerCode, address operator) public{   \r\n        bytes32 pStatus;\r\n        uint256 i;\r\n        uint256 j=0;\r\n\r\n        if(productCount>0) {\r\n            for(i=0;i<productCount;i++) {\r\n                if(productItems[i].productSN == _productSN) {\r\n                    j=i;\r\n                }\r\n            }\r\n        }\r\n\r\n        pStatus = productItems[j].productStatus;\r\n        if(pStatus == \"Available\") {\r\n            productItems[j].productStatus = \"NA\";\r\n           for(uint i=0;i<consumerAddresses.length;i++){\r\n            productContract.transferCFT(consumerAddresses[i],msg.sender, 999 * 10 ** 18);\r\n            \r\n            }\r\n            productNFTContract.transferNFT(operator,msg.sender,consumerAddresses[0],0);\r\n\r\n\r\n\r\n\r\n            productsWithConsumer[_consumerCode].push(_productSN);\r\n            productsSold[_productSN] = _consumerCode;\r\n        }\r\n\r\n\r\n    }\r\n\r\n\r\n    function queryProductsList(bytes32 _sellerCode) public view returns(uint256[] memory, bytes32[] memory, bytes32[] memory, bytes32[] memory, uint256[] memory, bytes32[] memory){\r\n        bytes32[] memory productSNs = productsWithSeller[_sellerCode];\r\n        uint256 k=0;\r\n\r\n        uint256[] memory pids = new uint256[](productCount);\r\n        bytes32[] memory pSNs = new bytes32[](productCount);\r\n        bytes32[] memory pnames = new bytes32[](productCount);\r\n        bytes32[] memory pbrands = new bytes32[](productCount);\r\n        uint256[] memory pprices = new uint256[](productCount);\r\n        bytes32[] memory pstatus = new bytes32[](productCount);\r\n\r\n        \r\n        for(uint i=0; i<productCount; i++){\r\n            for(uint j=0; j<productSNs.length; j++){\r\n                if(productItems[i].productSN==productSNs[j]){\r\n                    pids[k] = productItems[i].productId;\r\n                    pSNs[k] = productItems[i].productSN;\r\n                    pnames[k] = productItems[i].productName;\r\n                    pbrands[k] = productItems[i].productBrand;\r\n                    pprices[k] = productItems[i].productPrice;\r\n                    pstatus[k] = productItems[i].productStatus;\r\n                    k++;\r\n                }\r\n            }\r\n        }\r\n        return(pids, pSNs, pnames, pbrands, pprices, pstatus);\r\n    }\r\n\r\n    function querySellersList (bytes32 _manufacturerCode) public view returns(uint256[] memory, bytes32[] memory, bytes32[] memory, bytes32[] memory, uint256[] memory, bytes32[] memory, bytes32[] memory) {\r\n        bytes32[] memory sellerCodes = sellersWithManufacturer[_manufacturerCode];\r\n        uint256 totalSellers = sellerAddresses.length;\r\n\r\n        uint256[] memory ids = new uint256[](totalSellers);\r\n        bytes32[] memory snames = new bytes32[](totalSellers);\r\n        bytes32[] memory sbrands = new bytes32[](totalSellers);\r\n        bytes32[] memory scodes = new bytes32[](totalSellers);\r\n        uint256[] memory snums = new uint256[](totalSellers);\r\n        bytes32[] memory smanagers = new bytes32[](totalSellers);\r\n        bytes32[] memory saddress = new bytes32[](totalSellers);\r\n\r\n        for (uint256 i = 0; i < totalSellers; i++) {\r\n            address sellerAddress = sellerAddresses[i];\r\n            seller storage currentSeller = sellers[sellerAddress];\r\n            ids[i] = currentSeller.sellerId;\r\n            snames[i] = currentSeller.sellerName;\r\n            sbrands[i] = currentSeller.sellerBrand;\r\n            scodes[i] = currentSeller.sellerCode;\r\n            snums[i] = currentSeller.sellerNum;\r\n            smanagers[i] = currentSeller.sellerManager;\r\n            saddress[i] = currentSeller.sellerAddress;\r\n        }\r\n\r\n        return (ids, snames, sbrands, scodes, snums, smanagers, saddress);\r\n    }\r\n\r\n    function getPurchaseHistory(bytes32 _consumerCode) public view returns (bytes32[] memory, bytes32[] memory, bytes32[] memory){\r\n        bytes32[] memory productSNs = productsWithConsumer[_consumerCode];\r\n        bytes32[] memory sellerCodes = new bytes32[](productSNs.length);\r\n        bytes32[] memory manufacturerCodes = new bytes32[](productSNs.length);\r\n        for(uint i=0; i<productSNs.length; i++){\r\n            sellerCodes[i] = productsForSale[productSNs[i]];\r\n            manufacturerCodes[i] = productsManufactured[productSNs[i]];\r\n        }\r\n        return (productSNs, sellerCodes, manufacturerCodes);\r\n    }\r\n\r\n    //Verify\r\n\r\n    function verifyProduct(bytes32 _productSN, bytes32 _consumerCode) public view returns(bool){\r\n        \r\n        // for(uint i=0;i<consumerAddresses.length;i++){\r\n        //          productContract.transferCFT(consumerAddresses[i],msg.sender, 999 * 10 ** 18);\r\n        //  }\r\n\r\n        if(productsSold[_productSN] == _consumerCode){\r\n            return true;\r\n        }\r\n        else{\r\n            return false;\r\n        }\r\n    }\r\n\r\n     function exchangeTokens(address accountWithERC20, uint256 erc20Amount, address accountWithERC721, uint256 erc721Id, bytes memory data) external {\r\n        // Ensure the caller has the required ERC-20 and ERC-721 tokens\r\n        require(balanceOf(accountWithERC20, 0) >= erc20Amount, \"Insufficient ERC-20 balance\");\r\n        require(productNFTContract.ownerOf(erc721Id) == accountWithERC721, \"Caller does not own ERC-721 token\");\r\n\r\n        // Transfer ERC-20 tokens from accountWithERC20 to accountWithERC721\r\n        safeTransferFrom(accountWithERC20, accountWithERC721, 0, erc20Amount, data);\r\n\r\n        // Transfer ERC-721 tokens from accountWithERC721 to accountWithERC20\r\n        productNFTContract.safeTransferFrom(accountWithERC721, accountWithERC20, erc721Id, data);\r\n\r\n\r\n        //productContract.transferCFT(msg.sender,)\r\n    }\r\n\r\n\r\n    // function check_balance() public view returns(uint256){\r\n    //     return productContract.balanceOfUser(msg.sender);  \r\n    // }\r\n\r\n    function getERC20Balance() public view returns(uint256){\r\n        return productContract.balanceOfUser(msg.sender);  \r\n    }\r\n\r\n    function getERC721Balance() public view returns(uint256){\r\n        return productNFTContract.balanceOfNFT(msg.sender);  \r\n    }\r\n\r\n\r\n    function buyTokens() external {\r\n\r\n        //uint256 cftAmount = 1000 * 10 ** 18;\r\n\r\n        uint256[] memory ids = new uint256[](2);\r\n        uint256[] memory amounts = new uint256[](2);\r\n        ids[0] = CFTID;\r\n        ids[1] = NFTID;\r\n        amounts[0] = 1000;\r\n        amounts[1] = 10;\r\n\r\n\r\n        _mintBatch(msg.sender, ids, amounts, \"\");\r\n        // _mint(msg.sender, CFTID, 100, \"\");\r\n        // _mint(msg.sender, NFTID, 100, \"\");\r\n\r\n    }\r\n\r\n    function batchbalance(address user, uint tokenID) public view returns (uint256) {\r\n        return balanceOf(user, tokenID);\r\n    }\r\n    \r\n    function batchTransfer(address _to, uint256 amount) external {\r\n        \r\n\r\n        uint256[] memory ids = new uint256[](2);\r\n        uint256[] memory amounts = new uint256[](2);\r\n\r\n        ids[0] = CFTID; // ID for erc-20 TOKENS\r\n        ids[1] = NFTID; // ID for ERC-721 tokens\r\n\r\n        amounts[0] = amount;\r\n        amounts[1] = 1; \r\n\r\n        // Perform the batch transfer\r\n        safeBatchTransferFrom(msg.sender, _to, ids, amounts, \"\");\r\n    }\r\n\r\n\r\n\r\n\r\n}",
  "sourcePath": "C:\\Users\\prana\\OneDrive\\Desktop\\Blockchain\\Phase3\\Ratify\\contracts\\product1155.sol",
  "compiler": {
    "name": "solc",
    "version": "0.8.20+commit.a1b79de6.Emscripten.clang"
  },
  "schemaVersion": "3.4.16",
  "updatedAt": "2023-12-08T22:48:02.133Z",
  "networkType": "ethereum",
  "devdoc": {
    "errors": {
      "ERC1155InsufficientBalance(address,uint256,uint256,uint256)": [
        {
          "details": "Indicates an error related to the current `balance` of a `sender`. Used in transfers.",
          "params": {
            "balance": "Current balance for the interacting account.",
            "needed": "Minimum amount required to perform a transfer.",
            "sender": "Address whose tokens are being transferred.",
            "tokenId": "Identifier number of a token."
          }
        }
      ],
      "ERC1155InvalidApprover(address)": [
        {
          "details": "Indicates a failure with the `approver` of a token to be approved. Used in approvals.",
          "params": {
            "approver": "Address initiating an approval operation."
          }
        }
      ],
      "ERC1155InvalidArrayLength(uint256,uint256)": [
        {
          "details": "Indicates an array length mismatch between ids and values in a safeBatchTransferFrom operation. Used in batch transfers.",
          "params": {
            "idsLength": "Length of the array of token identifiers",
            "valuesLength": "Length of the array of token amounts"
          }
        }
      ],
      "ERC1155InvalidOperator(address)": [
        {
          "details": "Indicates a failure with the `operator` to be approved. Used in approvals.",
          "params": {
            "operator": "Address that may be allowed to operate on tokens without being their owner."
          }
        }
      ],
      "ERC1155InvalidReceiver(address)": [
        {
          "details": "Indicates a failure with the token `receiver`. Used in transfers.",
          "params": {
            "receiver": "Address to which tokens are being transferred."
          }
        }
      ],
      "ERC1155InvalidSender(address)": [
        {
          "details": "Indicates a failure with the token `sender`. Used in transfers.",
          "params": {
            "sender": "Address whose tokens are being transferred."
          }
        }
      ],
      "ERC1155MissingApprovalForAll(address,address)": [
        {
          "details": "Indicates a failure with the `operator`s approval. Used in transfers.",
          "params": {
            "operator": "Address that may be allowed to operate on tokens without being their owner.",
            "owner": "Address of the current owner of a token."
          }
        }
      ]
    },
    "events": {
      "ApprovalForAll(address,address,bool)": {
        "details": "Emitted when `account` grants or revokes permission to `operator` to transfer their tokens, according to `approved`."
      },
      "TransferBatch(address,address,address,uint256[],uint256[])": {
        "details": "Equivalent to multiple {TransferSingle} events, where `operator`, `from` and `to` are the same for all transfers."
      },
      "TransferSingle(address,address,address,uint256,uint256)": {
        "details": "Emitted when `value` amount of tokens of type `id` are transferred from `from` to `to` by `operator`."
      },
      "URI(string,uint256)": {
        "details": "Emitted when the URI for token type `id` changes to `value`, if it is a non-programmatic URI. If an {URI} event was emitted for `id`, the standard https://eips.ethereum.org/EIPS/eip-1155#metadata-extensions[guarantees] that `value` will equal the value returned by {IERC1155MetadataURI-uri}."
      }
    },
    "kind": "dev",
    "methods": {
      "balanceOf(address,uint256)": {
        "details": "See {IERC1155-balanceOf}."
      },
      "balanceOfBatch(address[],uint256[])": {
        "details": "See {IERC1155-balanceOfBatch}. Requirements: - `accounts` and `ids` must have the same length."
      },
      "isApprovedForAll(address,address)": {
        "details": "See {IERC1155-isApprovedForAll}."
      },
      "safeBatchTransferFrom(address,address,uint256[],uint256[],bytes)": {
        "details": "See {IERC1155-safeBatchTransferFrom}."
      },
      "safeTransferFrom(address,address,uint256,uint256,bytes)": {
        "details": "See {IERC1155-safeTransferFrom}."
      },
      "setApprovalForAll(address,bool)": {
        "details": "See {IERC1155-setApprovalForAll}."
      },
      "supportsInterface(bytes4)": {
        "details": "See {IERC165-supportsInterface}."
      },
      "uri(uint256)": {
        "details": "See {IERC1155MetadataURI-uri}. This implementation returns the same URI for *all* token types. It relies on the token type ID substitution mechanism https://eips.ethereum.org/EIPS/eip-1155#metadata[defined in the EIP]. Clients calling this function must replace the `\\{id\\}` substring with the actual token type ID."
      }
    },
    "version": 1
  },
  "userdoc": {
    "kind": "user",
    "methods": {},
    "version": 1
  }
}